S01600006B657970616420616E64206C63642E73726563EA
S11300000C9434000C9449000C9449000C9449005D
S11300100C9449000C9449000C9449000C94490038
S11300200C9449000C9449000C9449000C94490028
S11300300C9449000C9449000C9449000C94490018
S11300400C9449000C9449000C9449000C94490008
S11300500C9449000C9449000C9449000C944900F8
S11300600C9449000C94490011241FBECFEFD8E032
S1130070DEBFCDBF11E0A0E0B1E0E2E3F3E002C0F7
S113008005900D92AA30B107D9F70E9476010C941D
S113009097010C94000082E68093B80084E080937A
S11300A0BC001092B900089584EA8093BC0080914A
S11300B0BC008823E4F708958093BB0084E8809310
S11300C0BC008091BC008823E4F7089540E050E030
S11300D0841795075CF020E030E0293731051CF4E3
S11300E02F5F3F4FFACF4F5F5F4FF2CF0895EBEB97
S11300F0F0E080818260808384E88093BC008091FA
S1130100BC008823E4F781E090E00E946600EBEBFA
S1130110F0E080818D7F808384E88093BC008091AF
S1130120BC008823E4F70895EBEBF0E090819E7F18
S1130130908394E89093BC009091BC009923E4F7D9
S1130140EBEBF0E090819F70908394E89093BC0077
S11301509091BC009923E4F7EBEBF0E09081807F71
S1130160892B808384E88093BC008091BC00882321
S1130170E4F70E9477000895CF93C82FEBEBF0E0EB
S113018080818E7F808384E88093BC008091BC0052
S11301908823E4F7EBEBF0E080818F70808384E8C0
S11301A08093BC008091BC008823E4F7EBEBF0E083
S11301B080819C2F907F892B808384E88093BC006E
S11301C08091BC008823E4F70E947700EBEBF0E019
S11301D080818F70808384E88093BC008091BC0010
S11301E08823E4F7EBEBF0E0208130E1C39FC0010A
S11301F01124822B808384E88093BC008091BC000E
S11302008823E4F70E947700CF91089580E30E9449
S1130210940080E30E94940080E20E94940088E2AB
S11302200E94BC008CE00E94BC0081E00E94BC00E3
S113023086E00E94BC0080E80E94BC000895CF9331
S1130240C82FEBEBF0E080818160808384E88093A9
S1130250BC008091BC008823E4F7EBEBF0E08081E4
S11302608F70808384E88093BC008091BC008823D5
S1130270E4F7EBEBF0E080819C2F907F892B808367
S113028084E88093BC008091BC008823E4F70E943A
S11302907700EBEBF0E080818F70808384E88093BB
S11302A0BC008091BC008823E4F7EBEBF0E02081F4
S11302B030E1C39FC0011124822B808384E88093A2
S11302C0BC008091BC008823E4F70E947700CF91A2
S11302D00895CF93DF93EC018881882321F0219640
S11302E00E941F01F9CFDF91CF9108950E944B0026
S11302F00E94540080E70E945C000E94060180E88E
S11303000E94BC0080E091E00E9469012FEF89E621
S113031098E1215080409040E1F700C0000083EC58
S11303200E94BC0086E091E00E946901E8CFF89445
S1050330FFCFF9
S10D033248454C4C4F0048490000B8
S9030000FC
