:020000040000FA
:100000000C9432010C945A010C945A010C945A012C
:100010000C945A010C945A010C945A010C945A01F4
:100020000C945A010C945A010C945A010C945A01E4
:100030000C945A010C945A010C945A010C945A01D4
:100040000C94EE090C945A010C94BC090C9496097A
:100050000C945A010C945A010C945A010C945A01B4
:100060000C94380A0C945A0107634236B79BD8A700
:100070001A39685618AEBAAB558C1D3CB7CC5763CD
:10008000BD6DEDFD753EF6177231BF000000803F7B
:1000900000000000240027002A00000000002500C6
:1000A00028002B0000000000230026002900040483
:1000B0000404040404040202020202020303030310
:1000C00003030102040810204080010204081020EC
:1000D00001020408102000000008000201000003D3
:1000E00004070000000000000000903230405D8EE8
:1000F00037C184F353C08DD98341590E9C417BA7EE
:10010000A64166A0E3403D8DCDC09F1FF43F42DA7B
:10011000CF406FB2DDC15CD3D141DF5153BE982FC8
:10012000B7C07D39B2C15F86F041D674C4404D0777
:100130002DC1E41AE441248F1CC1D6F1CE40EC4C11
:10014000613D3CBE6E4098A484403FA81E40890A91
:10015000553C4E4665C046EA82C13B22624173DB94
:10016000A2C05699D13F6AA2BC40C137B53FB13158
:1001700054C054076D41A840A7C1B8C9C8BFD175C4
:10018000F53F3A209D40EC42814054932DC1A48814
:10019000B4C0E23C84C011622B41C6A27040C60FBD
:1001A0009C416DD48D41A3744DC009871EC0B1D050
:1001B0000F41684CA640EEB428408FDB8A41F358CB
:1001C0000040076A3B410C81AEC02417DEC03608F0
:1001D0002C41A0A62A3FBE83E8C0609365C0C3BF80
:1001E0001EC1B7E94AC15D4C77C1D6DA5BC1A81D13
:1001F000023FDDDE7241754A32C153AE98C17828A4
:10020000A03F4B0DB041454687C09A97E3BE96B2DA
:1002100065402F50263F40CF5A411E6E50C145AA1F
:1002200033C1AECF74C1AFEDDBBF7A9DD740176A43
:10023000E1C1A35920C0C555A6406641E0401AA2BD
:1002400037C0519F6940CF3B9041BB258340F2B2FC
:100250002741703E24C025D81E416E13164049C761
:100260009040570B11241FBECFEFD8E0DEBFCDBFAB
:1002700013E0A0E0B1E0E8E3FEE202C005900D92D9
:10028000A234B107D9F725E0A2E4B3E001C01D9282
:10029000A735B207E1F711E0C2E3D1E004C021972E
:1002A000FE010E94EF15C133D107C9F70E94670C08
:1002B0000C941A170C94000096E0899FD001112429
:1002C000A852BB4F90967C936E935F9791E0919666
:1002D0009C939197E0914505F091460590914405D6
:1002E000992339F0309751F0811108C08091F404BE
:1002F0000994309719F05C968C91FACF0895CF92BB
:10030000DF92EF92FF920F931F9396E0899FF00187
:100310001124E852FB4F11A2278D30A12130310565
:1003200051F178F02230310509F451C02330310504
:1003300009F452C01F910F91FF90EF90DF90CF9082
:1003400008956623B9F361E070E00E945C012FB765
:10035000F8948091180490911904A0911A04B09116
:100360001B042FBF8093300590933105A093320575
:10037000B0933305DFCF9FB7F894C0901804D090A6
:100380001904E0901A04F0901B049FBF00913005FF
:10039000109131052091320530913305C01AD10AF0
:1003A000E20AF30A009142051091430530E020E093
:1003B0000C151D052E053F0550F462E070E01F91FD
:1003C0000F91FF90EF90DF90CF900C945C01611142
:1003D000B1CF63E070E0F3CF70E060E0F0CF08955C
:1003E0000895AF92BF92CF92DF92EF92FF920F9358
:1003F0001F93CF93DF936C017B018B01040F151FBB
:10040000EB015E01AE18BF08C017D10759F0699122
:10041000D601ED91FC910190F081E02DC601099586
:10042000892B79F7C501DF91CF911F910F91FF9033
:10043000EF90DF90CF90BF90AF900895FC01538D67
:10044000448D252F30E0842F90E0821B930B5417AE
:1004500010F0CF96089501970895FC01918D828D3B
:10046000981761F0A28DAE0FBF2FB11D5D968C91D4
:10047000928D9F5F9F73928F90E008958FEF9FEF13
:100480000895FC01918D828D981731F0828DE80FCF
:10049000F11D858D90E008958FEF9FEF0895FC0189
:1004A000918D228D892F90E0805C9F4F821B910956
:1004B0008F73992708958CE194E00E944F0221E008
:1004C000892B09F420E0822F089580E090E0892BA9
:1004D00029F00E945B0281110C9400000895FC0138
:1004E000A48DA80FB92FB11DA35ABF4F2C91848D95
:1004F00090E001968F739927848FA689B7892C93F2
:10050000A089B1898C91837080648C93938D848D44
:10051000981306C00288F389E02D80818F7D808347
:100520000895EF92FF920F931F93CF93DF93EC0107
:1005300081E0888F9B8D8C8D98131AC0E889F9898A
:10054000808185FF15C09FB7F894EE89FF8960838D
:10055000E889F98980818370806480839FBF81E00E
:1005600090E0DF91CF911F910F91FF90EF90089550
:10057000F62E0B8D10E00F5F1F4F0F731127E02E2B
:100580008C8D8E110CC00FB607FCFACFE889F98963
:10059000808185FFF5CFCE010E946F02F1CFEB8DF8
:1005A000EC0FFD2FF11DE35AFF4FF0829FB7F89437
:1005B0000B8FEA89FB8980818062CFCFCF93DF9355
:1005C000EC01888D8823B9F0AA89BB89E889F9896B
:1005D0008C9185FD03C0808186FD0DC00FB607FCA0
:1005E000F7CF8C9185FFF2CF808185FFEDCFCE01D3
:1005F0000E946F02E9CFDF91CF910895833081F09F
:1006000028F4813099F08230A9F008958730A9F05C
:100610008830C9F08430B1F4809180008F7D03C0B0
:10062000809180008F7780938000089584B58F77C4
:1006300084BD089584B58F7DFBCF8091B0008F7706
:100640008093B00008958091B0008F7DF9CFCF9353
:10065000DF93282F30E0F901EA52FF4F8491F9012E
:10066000EE53FF4FD491F901E255FF4FC491CC23D3
:10067000A1F081110E94FE02EC2FF0E0EE0FFF1FAF
:10068000EC55FF4FA591B491EC91ED2381E090E002
:1006900009F480E0DF91CF91089580E090E0FACFF7
:1006A000862F0C9427031F93CF93DF93282F30E0DE
:1006B000F901EA52FF4F8491F901EE53FF4FD491B3
:1006C000F901E255FF4FC491CC23A9F0162F8111F7
:1006D0000E94FE02EC2FF0E0EE0FFF1FE656FF4FE8
:1006E000A591B4918FB7F894EC91111108C0D095F1
:1006F000DE23DC938FBFDF91CF911F910895DE2B16
:10070000F8CF862F642F0C945303CF93DF9390E0A0
:10071000FC01EE53FF4F249182559F4FFC018491C1
:100720008823C9F090E0880F991FFC01E057FF4F24
:10073000A591B491FC01E656FF4FC591D49161118A
:100740000DC09FB7F8948C91209582238C9388815B
:10075000282328839FBFDF91CF910895623051F401
:100760009FB7F8943C91822F809583238C93E881E6
:100770002E2BEFCF8FB7F894EC912E2B2C938FBFAD
:10078000EACF862F642F0C9485038E3008F08E50AC
:100790008770806480937C0080917A00806480936D
:1007A0007A0080917A0086FDFCCF8091780090914C
:1007B000790008953FB7F8948091F5039091F6037E
:1007C000A091F703B091F80326B5A89B05C02F3F71
:1007D00019F00196A11DB11D3FBFBA2FA92F982F67
:1007E0008827BC01CD01620F711D811D911D42E062
:1007F000660F771F881F991F4A95D1F708958F922A
:100800009F92AF92BF92CF92DF92EF92FF924B01F5
:100810005C010E94DA036B017C010E94DA036C190F
:100820007D098E099F09683E734081059105A8F3F3
:1008300021E0821A9108A108B10888EEC80E83E071
:10084000D81EE11CF11C81149104A104B10429F704
:10085000FF90EF90DF90CF90BF90AF909F908F90E0
:100860000895089520918303260F3327331F2132E3
:100870003105ECF42091CC03FC0190E080E02430C1
:1008800069F082E00895A09183032191AC014D5954
:100890005C4FA40FB52FB11D2C930196861798F3CA
:1008A00080918303680F6093830380E0089581E063
:1008B00008951092CC0381E08093CB031092A6039D
:1008C00061E082E10E94530361E083E10E945303EF
:1008D000E9EBF0E080818E7F808380818D7F808353
:1008E00088E48093B80085E48093BC000895CF939A
:1008F000DF9391E0909362038823B9F0C091B80030
:10090000D091BA008091BC008A7B8093BC0060E0EB
:1009100082E10E94530360E083E10E9453030E943E
:100920005904D093BA00C093B800DF91CF910895D5
:100930000895E09100048091FF03E81730F4F0E09F
:10094000EE5BFC4F808190E008958FEF9FEF08955C
:10095000909100048091FF032FEF3FEF981748F428
:10096000E92FF0E0EE5BFC4F208130E09F5F909339
:100970000004C90108958091FF0390910004891B30
:10098000990B0895CF92DF92EF92FF920F931F93EE
:10099000CF93DF937C01CB018A012091D2032223E4
:1009A00089F0EB016B01C40ED51ECC15DD0569F095
:1009B0006991D701ED91FC910190F081E02DC70183
:1009C0000995F3CF642F0E943204C801DF91CF91C3
:1009D0001F910F91FF90EF90DF90CF900895CF93EC
:1009E000DF931F92CDB7DEB769832091D203222314
:1009F000F9F02091FD03203258F021E030E0FC01B5
:100A00003383228390E080E00F90DF91CF910895AF
:100A10008091FE03E82FF0E0ED52FC4F9981908326
:100A20008F5F8093FE038093FD0381E090E0ECCF25
:100A300061E0CE0101960E943204F7CFCF92DF929F
:100A4000EF92FF920F931F93CF93DF93FC01C4812A
:100A500021E02093D203C093F3031092FE0310927F
:100A6000FD038385682B89EB94E00E94EF04D0910D
:100A7000FD03D13208F092C00E94DA036B017C01C1
:100A80008091CC03811165C082E08093CC0381E02A
:100A90008093CB038FEF8093CA031092C903D09346
:100AA000C803A3EDB3E0E8EAF3E080E0D81385C023
:100AB0001092A7038091A703CC0FC82BC093A70364
:100AC0008091A603813009F07CC01092A6030E9499
:100AD000DA036B017C018091A7038093BB008091B6
:100AE000CE039091CF03A091D003B091D103892B75
:100AF0008A2B8B2B99F00E94DA030091CE03109180
:100B0000CF032091D0033091D1036C197D098E0958
:100B10009F090617170728073907E0F18091BC00E5
:100B200083FDD9CF85EC8093BC000E94DA036B0172
:100B30007C018091CC03823009F445C08091CA03C6
:100B40008F3F61F18091CA03803241F18091CA03E5
:100B500025C08091CE039091CF03A091D003B09196
:100B6000D103892B8A2B8B2B09F48ACF0E94DA03BD
:100B70000091CE031091CF032091D0033091D10387
:100B80006C197D098E099F09061717072807390771
:100B900008F076CF8091CD030E9477041092FE0377
:100BA0001092FD031092D203DF91CF911F910F910C
:100BB000FF90EF90DF90CF9008959D9191938F5F7C
:100BC00075CF85EEB0CF8091CE039091CF03A091E9
:100BD000D003B091D103892B8A2B8B2B09F4A9CF99
:100BE0000E94DA030091CE031091CF032091D0032D
:100BF0003091D1036C197D098E099F0906171707DB
:100C00002807390708F095CFC5CF90E080E0089518
:100C10004F925F926F927F929F92AF92BF92CF92CC
:100C2000DF92EF92FF920F931F93CF93DF935C01BC
:100C3000CCE5D1E081E0E82E84E0F82E00E011E080
:100C40009880229661E0892D0E94530368E270E04B
:100C500080E090E00E94FF0380E00E94C503F7015E
:100C6000819391937F01A114B10481F5F801408033
:100C70005180052C000C660877089C01990F440BE5
:100C8000550B2419350946095709AFEFB0E00E940A
:100C9000CB1222813381032E000C440B550B2419F7
:100CA0003509460957090E94AC12F7013293229385
:100CB0006F012F3F310519F014F02FEF30E037FFAF
:100CC00002C030E020E0F6013183208360E0892D0E
:100CD0000E94530368E270E080E090E00E94FF030E
:100CE0000C5F1F4FF1E0C236DF0709F0A9CFDF919B
:100CF000CF911F910F91FF90EF90DF90CF90BF9019
:100D0000AF909F907F906F905F904F9008958F92DB
:100D10009F92AF92BF92CF92DF92EF92FF929B0190
:100D2000AC018091CA04811128C06091CE047091F9
:100D3000CF048091D0049091D10490580E94501516
:100D40000E94EE1320E030E040E85FE30E940813C9
:100D50009B01AC0160E070E080E89FE30E947413A7
:100D60009B01AC01CA01B901FF90EF90DF90CF90D9
:100D7000BF90AF909F908F900895813099F76091C8
:100D8000CE047091CF048091D0049091D1049058FA
:100D90000E9450150E94EE136B017C01AC019B0177
:100DA00060E070E080E89FE30E9407134B015C0164
:100DB00020E030E040E85FE3C701B6010E9408137D
:100DC0009B01AC01C501B401C9CF2F923F924F9254
:100DD0005F926F927F928F929F92AF92BF92CF92CB
:100DE000DF92EF92FF920F931F93CF93DF93CDB7D4
:100DF000DEB762970FB6F894DEBF0FBECDBF6C01B1
:100E00008B018091CC049091CD049B012F5F3F4FCB
:100E1000220F331F3C832B83F901E80FF91F6080F9
:100E2000718032972080318021E030E04FEF6416EE
:100E3000740611F430E020E0F901E20DF31DFA83AD
:100E4000E9832B813C81245031093C832B8310168C
:100E500011060CF06DC0820F931FFC014080518081
:100E6000FFEF4F1A5F0AE090D404F090D50420926F
:100E7000C804101611060CF060C0B8016150710969
:100E8000C6010E94E5069E838D838091CC049091DB
:100E9000CD0498878F83EB81FC818E0F9F1F9B87EA
:100EA0008A87F091CB04FC872091D2043091D3043F
:100EB0003E872D87EF86F88AEF84F888912C812C65
:100EC000821493040CF096C0F701108211821282F2
:100ED00013822D813E813C832B83B12CA12CA41441
:100EE000B5040CF080C0AF81B8851A8A198A90E0E9
:100EF00080E08017910734F59601009731F09D014D
:100F000022503109F901208131816D917D912F5F4E
:100F10003F4F269FA001279F500D369F500D112453
:100F200029893A89240F351F3A8B298B0196E1CF05
:100F300026012FEF421A520A96CF4CE051E05E8311
:100F40004D83A3CF96010115110521F0EA85FB859C
:100F5000208131812F5F3F4F289DC001299D900D39
:100F6000389D900D11248A0D9B1DE989FA89E80F9F
:100F7000F91FEE0FFF1FEE0FFF1F2D853E85E20FBD
:100F8000F31F3C85332341F145915591659174914F
:100F90004987B52FA62F798BEB81FC8161917191E7
:100FA00081919191FC83EB8329853B2F4A2F5989AD
:100FB0000E9450159B01AC01F70160817181828113
:100FC00093810E940813F701608371838283938366
:100FD000FFEFAF1ABF0A83CF40814987B181A28159
:100FE0005381598BD9CF2FEF821A920A34E0E30E46
:100FF000F11C66CFC090D604D090D70449814093AD
:10100000C9048601F12CE12C89819A81E816F90640
:101010003CF5EF85F8899FEF6916790651F060E09D
:1010200070E080E89FEBE114F10449F0EF85F88966
:10103000349760817181828193810E948706F801D3
:101040006083718382839383FFEFEF1AFF0A2F85FA
:1010500038892C5F3F4F388B2F870C5F1F4FD4CFC1
:10106000C60162960FB6F894DEBF0FBECDBFDF910A
:10107000CF911F910F91FF90EF90DF90CF90BF9095
:10108000AF909F908F907F906F905F904F903F9028
:101090002F9008950F931F93CF938C01C62F0E941A
:1010A0001E056C2F6460C8010E941E056C2F6B7FAB
:1010B000C8010E941E0583EC90E00197F1F7CF91E3
:1010C0001F910F9108950F931F93CF93DF938C017E
:1010D000D62FC42F607F642B0E944A0880E1D89FDE
:1010E000B00111246C2BC801DF91CF911F910F919A
:1010F0000C944A0840E061E087E495E00E946308B0
:101100008BE39FE10197F1F70895CF93DF93CDB77C
:10111000DEB728970FB6F894DEBF0FBECDBF98E0BC
:10112000E0E4F1E0DE01119601900D929A95E1F76D
:1011300090914F05981708F48FEF90E0880F991F52
:1011400021E030E02C0F3D1F820F931FFC016081D6
:10115000606840E087E495E028960FB6F894DEBF1B
:101160000FBECDBFDF91CF910C94630841E00E9488
:10117000630881E090E00895FB0101900020E9F709
:101180003197AF01461B570BDC01ED91FC910280BA
:10119000F381E02D09944F925F926F927F928F922C
:1011A0009F92AF92BF92CF92DF92EF92FF920F93F6
:1011B0001F93CF93DF93CDB7DEB7A1970FB6F89407
:1011C000DEBF0FBECDBF8C016B01770FEE08FF08AD
:1011D000F7FE49C0DC01ED91FC910190F081E02D1A
:1011E0006DE209955C0122273327A9012C193D09DD
:1011F0004E095F0919A2FE01B1967F019AE0492EBE
:10120000512C612C712CCA01B901A30192010E94D9
:10121000D612605DD7016E937D0121153105410520
:10122000510589F790E080E0109721F0BD01C801D9
:101230000E94BC088A0D9B1DA1960FB6F894DEBFD4
:101240000FBECDBFDF91CF911F910F91FF90EF9017
:10125000DF90CF90BF90AF909F908F907F906F90D6
:101260005F904F900895A701960119A2FE01B196D3
:101270007F018AE0882E912CA12CB12CCA01B901E2
:10128000A50194010E94D612605DD7016E937D0185
:10129000211531054105510589F790E080E010974F
:1012A00059F2BD01C8010E94BC08C6CF6115710585
:1012B00011F00C94BC0890E080E0089585ED8093D7
:1012C000BC008091CE039091CF03A091D003B09148
:1012D000D1030796A11DB11D23E0B695A79597955B
:1012E00087952A95D1F72091BC0024FD03C0109268
:1012F000CC0308954091CE035091CF036091D00369
:101300007091D103452B462B472B69F30097A1051C
:10131000B10541F025E32A95F1F700000197A109F5
:10132000B109E1CF8091CD030C9477041F920F9205
:101330000FB60F9211242F933F934F935F936F93A8
:101340007F938F939F93AF93BF93EF93FF938CE122
:1013500094E00E946F02FF91EF91BF91AF919F9136
:101360008F917F916F915F914F913F912F910F904E
:101370000FBE0F901F9018951F920F920FB60F92ED
:1013800011242F938F939F93EF93FF93E0912C045D
:10139000F0912D048081E0913204F091330482FDBC
:1013A0001BC09081809135048F5F8F73209136042C
:1013B000821741F0E0913504F0E0E45EFB4F958F39
:1013C00080933504FF91EF919F918F912F910F9012
:1013D0000FBE0F901F9018958081F4CF1F920F922F
:1013E0000FB60F9211242F933F938F939F93AF9338
:1013F000BF938091180490911904A0911A04B091A0
:101400001B043091F40323E0230F2D3758F5019688
:10141000A11DB11D2093F403809318049093190427
:10142000A0931A04B0931B048091F5039091F603E6
:10143000A091F703B091F8030196A11DB11D80930F
:10144000F5039093F603A093F703B093F803BF91CD
:10145000AF919F918F913F912F910F900FBE0F9061
:101460001F90189526E8230F0296A11DB11DD2CF1B
:101470001F920F920FB60F9211242F933F934F9309
:101480005F936F937F938F939F93AF93BF93EF93EC
:10149000FF938091B900887F803609F44AC0F0F547
:1014A000883209F4A7C018F5803109F49BC0B8F45C
:1014B000882309F4F9C0883009F494C0FF91EF91B2
:1014C000BF91AF919F918F917F916F915F914F915C
:1014D0003F912F910F900FBE0F901F90189588315C
:1014E00009F488C0803251F78093CA0314C0803455
:1014F00009F49DC040F48033B9F38833F9F6809342
:10150000CA0385ECB0C0803509F485C0883509F47C
:1015100096C0883499F60E945E09D0CF883909F4C4
:101520008CC038F5883729F050F4883611F08037B0
:1015300029F683E08093CC031092A50357C0883826
:1015400009F47BC0803919F0803809F0B7CF809159
:10155000A503803208F071C0E091A50381E08E0FF1
:101560008093A5038091BB00F0E0EB57FC4F808394
:101570003DC0803B39F0E0F4803A09F479C0883A04
:1015800009F09CCF84E08093CC03109284031092E6
:101590008303E091FB03F091FC03099580918303A1
:1015A00081110FC081E0809383031092630309C00F
:1015B000803C09F4A6CF883C09F4A3CF883B09F00E
:1015C0007DCFE091840381E08E0F80938403F0E06F
:1015D000ED59FC4F80818093BB00909184038091F2
:1015E000830329C08091A7038093BB0085EC80937F
:1015F000BC0064CF9091C9038091C803981758F537
:10160000E091C90381E08E0F8093C903F0E0E855B3
:10161000FC4F8081E9CFE091C90381E08E0F809378
:10162000C9038091BB00F0E0E855FC4F80839091A6
:10163000C9038091C8039817C8F285E8D8CFE09114
:10164000C90381E08E0F8093C9038091BB00F0E055
:10165000E855FC4F80838091CB0381115CCF81E002
:101660008093A60384EA8093BC001092CC0326CF1B
:1016700085EC8093BC001092CC038091A50380324E
:1016800030F4E091A503F0E0EB57FC4F108260913D
:10169000A50370E0E091F903F091FA0385E893E087
:1016A00009951092A5030ACF1092CA0334CF1F9355
:1016B000CF93DF9310921F0410921E0488EE93E0E4
:1016C000A0E0B0E08093200490932104A093220432
:1016D000B093230426E631E030931D0420931C04CC
:1016E00025EC30E0309329042093280424EC30E0EA
:1016F00030932B0420932A0420EC30E030932D0407
:1017000020932C0421EC30E030932F0420932E04FE
:1017100022EC30E0309331042093300426EC30E0AA
:10172000309333042093320410923504109236041F
:1017300010923704109238041092BC041092BB042B
:101740008093BD049093BE04A093BF04B093C004E3
:1017500088E791E09093BA048093B90410924A0507
:101760001092490584E991E09093480580934705DC
:1017700087E280934B0580E18093500582E080935F
:101780005105109252051092DA041092DE04109264
:10179000DD041092DF048AE891E09093D9048093ED
:1017A000D804E4EFF4E080E395E010821482138221
:1017B000158236968E179F07C1F786E291E09093C7
:1017C0003B0580933A0582E291E090933D0580933A
:1017D0003C0584E080933E0580933F058AE291E0DA
:1017E00090933905809338058AE090E09093410505
:1017F0008093400584EF91E09093430580934205E8
:101800001092460510924505109234051092350548
:1018100010923605109237051092440580E090E052
:10182000A0E8BFE38093CE049093CF04A093D004AC
:10183000B093D1041092CA0483E08093C5048AE077
:101840008093C6048CE191E09093CD048093CC0406
:1018500081E08093CB048AEE90E09093D304809350
:10186000D204C0911C0111E0E12FF0E0EE0FFF1F48
:10187000E45EFE4F80819181C81719060CF4C82FD1
:101880001F5FE12FF0E0EE0FFF1FE45EFE4F80814F
:10189000918197FFE9CF84E0C89FE0011124CE0138
:1018A0000E94F5159093D5048093D404CE010E9434
:1018B000F5159093D7048093D6041093C704109223
:1018C000C9041092C804DF91CF911F9108957894B4
:1018D00084B5826084BD84B5816084BD85B5826035
:1018E00085BD85B5816085BD80916E0081608093E6
:1018F0006E0010928100809181008260809381004F
:10190000809181008160809381008091800081605E
:10191000809380008091B10084608093B1008091B9
:10192000B00081608093B00080917A0084608093E1
:101930007A0080917A00826080937A0080917A00A8
:10194000816080937A0080917A00806880937A0029
:101950001092C100109200041092FF031092FE0337
:101960001092FD030E9459048FEE91E09093FC03C6
:101970008093FB0380EF91E09093FA038093F90347
:1019800010924C0580915105823018F098E09093A8
:101990004C0580934F0562E370E080E090E00E9488
:1019A000FF036091520587E495E00E941E0568EEF2
:1019B00073E080E090E00E94FF0360E387E495E03D
:1019C0000E944A08CBE4D6E4CE010197F1F760E328
:1019D00087E495E00E944A082197F1F760E387E4E5
:1019E00095E00E944A0883E592E00197F1F760E2F2
:1019F00087E495E00E944A0860914C05606240E0EF
:101A000087E495E00E94630884E080934D0540E000
:101A10006CE087E495E00E9463080E947A08C2E0C7
:101A2000C0934E0540E066E087E495E00E946308BD
:101A300040E062E087E495E00E9463088BE39FE169
:101A40000197F1F788E08093520560E087E495E024
:101A50000E941E0561E08BE00E94850361E08CE03E
:101A60000E94850361E08DE00E94850360E08EE0C6
:101A70000E94850361E08FE00E94850361E081E1BF
:101A80000E94850361E080E10E948503E0912C04BF
:101A9000F0912D04C083E0912804F0912904108274
:101AA000E0912A04F0912B048FEC8083109234048F
:101AB000E0913004F091310486E08083E0912E04BF
:101AC000F0912F04808180618083E0912E04F09159
:101AD0002F04808188608083E0912E04F0912F0490
:101AE000808180688083E0912E04F0912F048081B2
:101AF0008F7D808361E08BE00E94850361E08CE054
:101B00000E94850361E08DE00E9485035CE5452E1F
:101B100051E0552EF201C081F2E04F0E511C61E000
:101B20008C2F0E94530368E270E080E090E00E94F6
:101B3000FF0360E08C2F0E94530368E270E080E0B6
:101B400090E00E94FF0322E6421621E0520611F7C0
:101B500022242A94322C46E0642E01E010E07724FF
:101B60007394709244058FB7F89440911804509183
:101B7000190460911A0470911B048FBF8091340581
:101B800090913505A0913605B0913705481B590B4A
:101B90006A0B7B0B8091400590914105B0E0A0E07D
:101BA00084179507A607B70708F00FC1C0E080911A
:101BB0003E05C81760F4E0913A05F0913B05EC0F43
:101BC000F11D62E080810E948503CF5FF0CF912CF0
:101BD00080913F05981608F061C0E92CF12CE09146
:101BE0003C05F0913D05EE0DFF1D61E080810E94F6
:101BF0008503E0913C05F0913D05EE0DFF1D60E091
:101C000080810E94530381E090E0A0E0B0E0092CC5
:101C100004C0880F991FAA1FBB1F0A94D2F75C014A
:101C20006C01C094D094812C80913E058816F8F404
:101C3000C82DD0E0E0913A05F0913B05EC0FFD1F77
:101C400080810E9427032496CC0FDD1FC852DB4FF2
:101C5000892B41F4888199818A299B2999838883DA
:101C60008394E2CF888199818C219D21F7CFE091E7
:101C70003C05F0913D05EE0DFF1D61E080810E9465
:101C8000530380913C0590913D05E80EF91E60E0FC
:101C9000F70180810E94850393949ACF98EDE92EF5
:101CA00094E0F92EE7018F8D98A1892B21F41C8EE9
:101CB0003E8E2D8E19A2269684E195E08C179D0705
:101CC00091F7D12C80913E05D81608F052C0C12C56
:101CD000AD2CB12CAA0CBB1CF501E052FB4F5F01EF
:101CE00020913F05C21608F042C0F5016081718164
:101CF0000C2C02C0769567950A94E2F7D29E90016B
:101D000011242C0D311DE8EDF4E080E0458D568D59
:101D10002417350709F41EC48F5F36968A30B1F751
:101D200060FF23C0E8EDF4E090E080E0448D4111D5
:101D300017C0E0913805F0913905E20FF31F40819B
:101D4000689EF001699EF00D1124E852FB4F448F0C
:101D5000368F258F10A2178E61E00E947F0105C08B
:101D6000019636968A30910509F7C394B9CFD3947A
:101D7000A9CF80E0F70191A19111892FF6E0EF0E34
:101D8000F11CEC16FD06B1F79FB7F89440911804CA
:101D90005091190460911A0470911B049FBF4093E5
:101DA00034055093350560933605709337058823C5
:101DB00061F08091F904882341F08091F7049091BB
:101DC000F804F090F404019719F010924405F12CF6
:101DD0008FEB8F0D833008F4DAC02AE2F21609F493
:101DE000D6C083E2F81609F4D2C0809114048111A0
:101DF000DBC0E3E4FE1629F080911504882309F482
:101E000031C17092150480E00E94850860ED71E098
:101E100087E495E00E945609F1E3FF12F1C081E0EA
:101E20000E94850863EE71E087E495E00E94560900
:101E300061E08FE00E9453036CED75E080E090E07C
:101E40000E94FF0360E08FE00E94530368EE73E09E
:101E500080E090E00E94FF030E947A0880911604BF
:101E6000811103C1E3E2FE1621F08091130488235F
:101E7000B1F081E00E9485080E947A0880E00E940B
:101E800085086FE872E087E495E00E94560964EFE8
:101E900071E080E090E00E94FF030E947A08F1E484
:101EA000FF1629F080911704882309F463C070920B
:101EB0001704CCE5D1E0E880229661E08E2D0E94E7
:101EC000530368E270E080E090E00E94FF0360E06E
:101ED0008E2D0E94530368E270E080E090E00E9443
:101EE000FF034C165D0639F721E3F2120DC20E9482
:101EF0007A086FE972E087E495E00E94560981E074
:101F00000E94850860EB72E087E495E00E94560924
:101F100068EB7BE080E090E00E94FF03A0E0CA2E27
:101F2000A1E0DA2EBCE5EB2EB1E0FB2EF701B0808C
:101F3000F2E0EF0EF11C61E08B2D0E94530368E28A
:101F400070E080E090E00E94FF0360E08B2D0E9433
:101F5000530368E270E080E090E00E94FF03F60126
:101F60003182208233822282F4E0CF0ED11CEC1623
:101F7000FD06E1F680E090E0892B09F4F2CD0E94A5
:101F80005B02882309F4EBCD0E940000E8CD10929B
:101F90001704109216041092150410921404109253
:101FA00013049AE2F91221CF80E00E9485086CE9BF
:101FB00071E087E495E00E94560968EE73E080E0E6
:101FC00090E00E94FF030E947A0880E00E9485084A
:101FD0006EEA71E087E495E00E94560981E00E9474
:101FE00085086FEB71E087E495E00E94560968EB85
:101FF0007BE080E090E00E94FF030E947A08F9CE27
:1020000022E3F21216C081E00E9485086FEE71E0B3
:1020100087E495E00E94560961E081E10E94530344
:102020006CED75E080E090E00E94FF0360E081E1EC
:102030000BCF83E3F81216C081E00E9485086DEF94
:1020400071E087E495E00E94560961E080E10E941A
:1020500053036CED75E080E090E00E94FF0360E0C8
:1020600080E1F2CE92E4F912F9CE7092160461E0AA
:102070008BE00E94530368E270E080E090E00E94F1
:10208000FF038EE00E94C503909312048093110415
:102090006AE070E080E090E00E94FF036AE072E096
:1020A0008CE194E00E945609609111047091120431
:1020B0008CE194E00E94CB086DE072E08CE194E04A
:1020C0000E94BC0860E08BE00E94530361E08CE05A
:1020D0000E94530368E270E080E090E00E94FF03FA
:1020E0008EE00E94C5039093100480930F046AE071
:1020F00070E080E090E00E94FF0360E172E08CE11C
:1021000094E00E94560960910F04709110048CE1D4
:1021100094E00E94CB086DE072E08CE194E00E94B4
:10212000BC0860E08CE00E94530361E08DE00E94F7
:10213000530368E270E080E090E00E94FF038EE0CD
:102140000E94C50390930E0480930D046AE070E032
:1021500080E090E00E94FF0363E172E08CE194E094
:102160000E94560960910D0470910E048CE194E078
:102170000E94CB086DE072E08CE194E00E94BC0804
:1021800060E08DE00E9453034091110450911204CD
:1021900020910F043091100480910D0490910E0451
:1021A00045365105FCF4241735070CF04FC0841751
:1021B00095070CF067C0433351050CF463C01093CE
:1021C0000C0400930B0480E00E94850866E172E035
:1021D00087E495E00E94560981E00E94850868E343
:1021E00072E020C085369105F4F225363105DCF227
:1021F00010930C0400930B0410930A040093090439
:10220000109308040093070480E00E94850866E1AB
:1022100072E087E495E00E94560981E00E948508FB
:1022200066E272E087E495E00E94560960910B0433
:102230008FE00E9453036091090481E10E945303DF
:102240006091070480E10E9453030CCE42175307AC
:10225000CCF482179307B4F4253631059CF0109323
:102260000A040093090480E00E94850866E172E098
:1022700087E495E00E94560981E00E94850869E4A0
:1022800072E0D0CF48175907C4F428173907ACF4C7
:10229000C3979CF0109308040093070480E00E9409
:1022A000850866E172E087E495E00E94560981E0C6
:1022B0000E9485086BE572E0B5CF10920C04109275
:1022C0000B0410920A041092090410920804109250
:1022D000070480E00E9485086CE672E087E495E0E0
:1022E0000E94560981E00E9485086BE772E087E44E
:1022F00095E00E94560964EF71E080E090E00E9452
:10230000FF030E947A0892CF22E3F2125BC0809111
:10231000000190910101019639F0809102019091A4
:102320000301019609F026CE81E090E00E940806A4
:1023300071E0A72E74E0B72EE0E0CE2EE1E0DE2EB5
:10234000FCE5EF2EF1E0FF2EF7019080F2E0EF0EBA
:10235000F11C61E0892D0E94530368E270E080E087
:1023600090E00E94FF0360E0892D0E94530368E221
:1023700070E080E090E00E94FF03F501819191916F
:102380005F01F601938382830E947A086FE972E00D
:1023900087E495E00E94560981E00E94850861EC7F
:1023A00072E087E495E00E94560960ED77E080E0F6
:1023B00090E00E94FF03F4E0CF0ED11CCE15DF05A4
:1023C00019F6D8CD23E3F212B0C00E947A0862ED6C
:1023D00072E087E495E00E94560981E00E9485083A
:1023E00063EE72E087E495E00E94560960EA7FE0C0
:1023F00080E090E00E94FF0390E080E00E940806E9
:1024000080E00E94850863EE72E087E495E00E9418
:10241000560980E00E94850851E0E52E54E0F52E33
:1024200060E1C62E61E0D62ED0E0C0E0F7016191F8
:1024300071917F0187E495E00E94CB08C230D105FD
:1024400031F064EF72E087E495E00E94560921962E
:10245000F701329760817181072E000C880B990B70
:102460000E94221420E030E04FE753E40E947413EE
:10247000F60161937193819391936F01C330D105FC
:10248000A9F681E00E9485086091C7046150770B2E
:102490008091C50490E00E94E5065C018091C7042C
:1024A00090E081509048880F991F2091CC04309182
:1024B000CD04820F931FFC01808091806501F4E0C0
:1024C000CF0ED11CEE24E394F12CD0E0C0E0E81450
:1024D000F904D4F4F60161917191819191916F01A8
:1024E000FE01EE0FFF1FEE0FFF1FEA0DFB1D208107
:1024F0003181428153810E94D51418160CF4E701F2
:10250000FFEFEF1AFF0AE3CFCC0FDD1FC85BDE4FF2
:102510006881798187E495E00E94560968E873E153
:1025200080E090E00E94FF0325CD0E947A0880E0C1
:102530000E94850868EF72E087E495E00E945609E2
:1025400081E00E94850866E073E087E495E00E94E0
:10255000560910CD617001CC052E97FB1EF4009436
:102560000E94C31257FD07D00E94D61207FC03D069
:102570004EF40C94C31250954095309521953F4FE1
:102580004F4F5F4F089590958095709561957F4F5F
:102590008F4F9F4F08950E94F812A59F900DB49FF2
:1025A000900DA49F800D911D11240895A1E21A2E73
:1025B000AA1BBB1BFD010DC0AA1FBB1FEE1FFF1FE7
:1025C000A217B307E407F50720F0A21BB30BE40B37
:1025D000F50B661F771F881F991F1A9469F760957E
:1025E0007095809590959B01AC01BD01CF01089538
:1025F000A29FB001B39FC001A39F700D811D112444
:10260000911DB29F700D811D1124911D0895505888
:10261000BB27AA270E941F130C949B140E948D14A1
:1026200038F00E94941420F039F49F3F19F426F4F6
:102630000C9463140EF4E095E7FB0C945D14E92F01
:102640000E94AC1458F3BA17620773078407950702
:1026500020F079F4A6F50C94CE140EF4E0950B2E30
:10266000BA2FA02D0B01B90190010C01CA01A001E4
:102670001124FF27591B99F0593F50F4503E68F13F
:102680001A16F040A22F232F342F4427585FF3CF80
:10269000469537952795A795F0405395C9F77EF451
:1026A0001F16BA0B620B730B840BBAF09150A1F09A
:1026B000FF0FBB1F661F771F881FC2F70EC0BA0F20
:1026C000621F731F841F48F4879577956795B795A8
:1026D000F7959E3F08F0B0CF9395880F08F09927A3
:1026E000EE0F9795879508950E9488130C949B147C
:1026F0000E94941458F00E948D1440F029F45F3F1A
:1027000029F00C945D1451110C94CF140C946314A3
:102710000E94AC1468F39923B1F3552391F3951BF0
:10272000550BBB27AA2762177307840738F09F5FF2
:102730005F4F220F331F441FAA1FA9F335D00E2E5F
:102740003AF0E0E832D091505040E695001CCAF7CC
:102750002BD0FE2F29D0660F771F881FBB1F26178F
:1027600037074807AB07B0E809F0BB0B802DBF0166
:10277000FF2793585F4F3AF09E3F510578F00C9435
:102780005D140C94CF145F3FE4F3983ED4F3869528
:1027900077956795B795F7959F5FC9F7880F911D56
:1027A0009695879597F90895E1E0660F771F881F42
:1027B000BB1F621773078407BA0720F0621B730BF5
:1027C000840BBA0BEE1F88F7E095089529F416F0F4
:1027D0000C945D140C94CE140C9463140E94B414E5
:1027E000A8F39638A0F707F80F92E8942BE33AEA9B
:1027F00048EB5FE70E9466150F920F920F924DB75C
:102800005EB70F920E941C15E8E6F0E00E94661485
:102810004F915F91EF91FF91E595EE1FFF1F49F0FA
:10282000FE57E0684427EE0F441FFA95E1F7419503
:10283000550B0E94E6140F9007FE0C94DA140895CD
:10284000E89409C097FB3EF490958095709561954A
:102850007F4F8F4F9F4F9923A9F0F92F96E9BB2700
:102860009395F695879577956795B795F111F8CF7C
:10287000FAF4BB0F11F460FF1BC06F5F7F4F8F4FE7
:102880009F4F16C0882311F096E911C0772321F0DD
:102890009EE8872F762F05C0662371F096E8862F75
:1028A00070E060E02AF09A95660F771F881FDAF7CC
:1028B000880F9695879597F9089597F99F6780E80F
:1028C00070E060E008959FEF80EC0895DF93CF9370
:1028D0001F930F93FF92EF92DF927B018C0168941C
:1028E00006C0DA2EEF010E946315FE01E894A5915F
:1028F0002591359145915591A6F3EF010E941F1343
:10290000FE019701A801DA9469F7DF90EF90FF903C
:102910000F911F91CF91DF91089500240A9416160C
:10292000170618060906089500240A9412161306BD
:10293000140605060895092E0394000C11F488234B
:1029400052F0BB0F40F4BF2B11F460FF04C06F5F67
:102950007F4F8F4F9F4F089557FD9058440F551F3D
:1029600059F05F3F71F04795880F97FB991F61F011
:102970009F3F79F087950895121613061406551F88
:10298000F2CF4695F1DF08C0161617061806991FF4
:10299000F1CF86957105610508940895E894BB27E9
:1029A00066277727CB0197F908950E94BD1508F493
:1029B0008FEF08959B01AC0160E070E080E89FE339
:1029C0000C9474130C945D140C94E1150E94B414CF
:1029D000D8F39923C9F3940F511DA3F3915050409C
:1029E00094F059F0882332F0660F771F881F9150BA
:1029F0005040C1F79E3F51052CF7880F911D9695C9
:102A0000879597F908955F3FACF0983E9CF0BB27FF
:102A1000869577956795B79508F4B1609395C1F75A
:102A2000BB0F58F711F460FFE8CF6F5F7F4F8F4FF8
:102A30009F4FE3CF0C94CF14FA01DC01AA0FBB1F08
:102A40009B01AC01BF5728F4222733274427507835
:102A500020C0B75190F4AB2F0024469537952795A9
:102A6000011CA395D2F3002071F0220F331F441FE5
:102A7000B395DAF30ED00C94071361307105A0E81A
:102A80008A07B94630F49B01AC016627772788276F
:102A90009078309621F020833183428353830895C8
:102AA0000E9463150C949B140E948D1438F00E94B0
:102AB000941420F0952311F00C945D140C9463147D
:102AC00011240C94CF140E94AC1470F3959FC1F3A1
:102AD000950F50E0551F629FF001729FBB27F00DCC
:102AE000B11D639FAA27F00DB11DAA1F649F662721
:102AF000B00DA11D661F829F2227B00DA11D621F70
:102B0000739FB00DA11D621F839FA00D611D221F29
:102B1000749F3327A00D611D231F849F600D211D0D
:102B2000822F762F6A2F11249F5750409AF0F1F090
:102B300088234AF0EE0FFF1FBB1F661F771F881FF9
:102B400091505040A9F79E3F510580F00C945D14C0
:102B50000C94CF145F3FE4F3983ED4F386957795B9
:102B60006795B795F795E7959F5FC1F7FE2B880F9F
:102B7000911D9695879597F90895990F0008550F1F
:102B8000AA0BE0E8FEEF16161706E807F907C0F0F3
:102B900012161306E407F50798F0621B730B840BFB
:102BA000950B39F40A2661F0232B242B252B21F4D5
:102BB00008950A2609F4A140A6958FEF811D811D75
:102BC00008959F3F31F0915020F487957795679550
:102BD000B795880F911D9695879597F90895EE0FF3
:102BE000FF1F0590F491E02D09940F931F93CF934D
:102BF000DF938230910510F482E090E0E09155057A
:102C0000F091560530E020E0B0E0A0E0309799F474
:102C10002115310509F44AC0281B390B2430310530
:102C2000D8F58A819B816115710589F1FB01938338
:102C30008283FE0111C040815181028113814817B6
:102C40005907E0F04817590799F4109761F0129668
:102C50000C93129713961C933296CF01DF91CF916C
:102C60001F910F9108950093550510935605F4CFC9
:102C70002115310551F04217530738F0A901DB0146
:102C80009A01BD01DF01F801C1CFEF01F9CF9093A7
:102C9000560580935505CDCFFE01E20FF31F8193BA
:102CA00091932250310939832883D7CF209153053E
:102CB00030915405232B41F420913C0130913D018A
:102CC000309354052093530520913A0130913B01F4
:102CD0002115310541F42DB73EB740913E01509189
:102CE0003F01241B350BE0915305F0915405E21789
:102CF000F307A0F42E1B3F0B2817390778F0AC011F
:102D00004E5F5F4F2417350748F04E0F5F1F5093FB
:102D1000540540935305819391939FCFF0E0E0E0F9
:102D20009CCFCF93DF930097E9F0FC013297138299
:102D30001282A0915505B0915605ED0130E020E0DA
:102D40001097A1F420813181820F931F20915305A8
:102D5000309154052817390709F061C0F0935405E4
:102D6000E0935305DF91CF910895EA01CE17DF0775
:102D7000E8F54A815B819E0141155105B1F7E901F2
:102D8000FB83EA8349915991C40FD51FEC17FD07C6
:102D900061F4808191810296840F951FE9019983E6
:102DA0008883828193819B838A83F0E0E0E012969E
:102DB0008D919C9113970097B9F52D913C911197A6
:102DC000CD010296820F931F209153053091540537
:102DD0002817390739F6309751F510925605109299
:102DE0005505B0935405A0935305BCCFD383C2833C
:102DF00040815181840F951FC817D90761F44E5F38
:102E00005F4F88819981480F591F518340838A8180
:102E10009B81938382832115310509F0B0CFF09314
:102E20005605E09355059ECFFD01DC01C0CF13820E
:102E30001282D7CFF894FFCF49010A03A6003902C6
:102E40008C001002000080BF0000000000000000A5
:102E50000000000006000A00FFFF06070809020341
:102E600004053132334134353642373839432A305C
:102E70002344000057058000000040001400540067
:102E80001603EB01F70105021C032303290330039A
:102E900037033C030B000C000D0000000000910202
:102EA000F1011E02DE024F022D024102000000006D
:102EB000EF04C20405069804BB04A80499040000AA
:102EC0000000C1038103500300000000B608F101B7
:102ED000050631042020202057656C636F6D652046
:102EE0003A29202020004D6F6465732D2D3E20432C
:102EF000616C2D284129002053656E2D2842292C14
:102F00005247422D28432900202020524742204C7E
:102F10004544204D6F646520202000436F6C6F7224
:102F20002D2D3E52454400436F6C6F722D2D3E4750
:102F30005245454E00436F6C6F722D2D3E424C55ED
:102F40004500523D000D0A00473D00423D00436FE1
:102F50006C6F75722044657465637465640020202D
:102F600020576869746520436F6C6F7220202000C1
:102F70002020202052454420436F6C6F7220202077
:102F800000202020477265656E20436F6C6F7220B1
:102F9000202000202020426C756520436F6C6F72EA
:102FA0002020200053656E736F72696E67204D6F2D
:102FB000646500202020496E7365727420436F6C35
:102FC0006F7572202020002020202020204F4646B0
:102FD000202020202020002D2043414C49425241F6
:102FE00054494F4E20202D0053686F7720424C41AA
:102FF000434B20636F6C6F720053686F77205748A4
:1030000049544520636F6C6F72005265636F676E41
:10301000697A696E672E2E2E202000202020202025
:10302000202020202020202020202000202F2000D1
:1030300063616C2D2D3E424C412D283129005748AB
:10304000492D2832292C53656E2D28332900424CF6
:1030500041434B0059454C4C4F570042524F574E3D
:1030600000505552504C45004F52414E474500507C
:0A307000494E4B00574849544500F3
:107E0000112484B714BE81FFF0D085E080938100F7
:107E100082E08093C00088E18093C10086E0809377
:107E2000C20080E18093C4008EE0C9D0259A86E02C
:107E300020E33CEF91E0309385002093840096BBD3
:107E4000B09BFECF1D9AA8958150A9F7CC24DD24C4
:107E500088248394B5E0AB2EA1E19A2EF3E0BF2EE7
:107E6000A2D0813461F49FD0082FAFD0023811F036
:107E7000013811F484E001C083E08DD089C08234E0
:107E800011F484E103C0853419F485E0A6D080C0E4
:107E9000853579F488D0E82EFF2485D0082F10E0AE
:107EA000102F00270E291F29000F111F8ED06801E7
:107EB0006FC0863521F484E090D080E0DECF843638
:107EC00009F040C070D06FD0082F6DD080E0C81688
:107ED00080E7D80618F4F601B7BEE895C0E0D1E017
:107EE00062D089930C17E1F7F0E0CF16F0E7DF06D8
:107EF00018F0F601B7BEE89568D007B600FCFDCFD4
:107F0000A601A0E0B1E02C9130E011968C91119780
:107F100090E0982F8827822B932B1296FA010C0160
:107F200087BEE89511244E5F5F4FF1E0A038BF0790
:107F300051F7F601A7BEE89507B600FCFDCF97BE46
:107F4000E89526C08437B1F42ED02DD0F82E2BD052
:107F50003CD0F601EF2C8F010F5F1F4F84911BD097
:107F6000EA94F801C1F70894C11CD11CFA94CF0C13
:107F7000D11C0EC0853739F428D08EE10CD085E9AC
:107F80000AD08FE07ACF813511F488E018D01DD067
:107F900080E101D065CF982F8091C00085FFFCCF94
:107FA0009093C60008958091C00087FFFCCF809118
:107FB000C00084FD01C0A8958091C6000895E0E648
:107FC000F0E098E1908380830895EDDF803219F02E
:107FD00088E0F5DFFFCF84E1DECF1F93182FE3DFCA
:107FE0001150E9F7F2DF1F91089580E0E8DFEE27F6
:047FF000FF270994CA
:027FFE00040479
:00000001FF
