:100000000C9434000C9451000C9451000C94510049
:100010000C9451000C9451000C9451000C9451001C
:100020000C9451000C9451000C9451000C9451000C
:100030000C9451000C9451000C9451000C945100FC
:100040000C9451000C9451000C9451000C945100EC
:100050000C9451000C9451000C9451000C945100DC
:100060000C9451000C94510011241FBECFEFD8E026
:10007000DEBFCDBF11E0A0E0B1E0EEE8F8E102C0E4
:1000800005900D92AE3FB107D9F722E0AEEFB1E097
:1000900001C01D92A030B207E1F70E9476050C94D2
:1000A000450C0C94000081E085B983B1813119F0D1
:1000B00080E091E002C087E091E023B1213211F4A9
:1000C00089E091E023B1213021F44A9B02C08BE00A
:1000D00091E023B1213021F44C9B02C08DE091E0EE
:1000E0002FEF39EF40E0215030404040E1F700C0B1
:1000F000000022E025B923B1223111F48FE091E014
:1001000023B1223211F481E191E023B1223021F4B4
:100110004A9B02C083E191E023B1223021F44C9B41
:1001200002C085E191E02FEF39EF40E021503040EF
:100130004040E1F700C0000024E025B923B124319C
:1001400011F487E191E023B1243211F489E191E0C7
:1001500023B1243021F44A9B02C08BE191E023B10A
:10016000243021F44C9B02C08DE191E02FEF39EF58
:1001700040E0215030404040E1F700C0000028E05E
:1001800025B923B1283111F482EB91E023B1283253
:1001900011F48FE191E023B1283021F44A9B02C091
:1001A00081E291E023B1283021F44C9B02C083E22C
:1001B00091E02FEF39EF40E0215030404040E1F72F
:1001C00000C00000089582E68093B80084E0809328
:1001D000BC001092B900089584EA8093BC0080911D
:1001E000BC008823E4F708958093BB0084E88093E3
:1001F000BC008091BC008823E4F70895EBEBF0E0AD
:1002000080818260808384E88093BC008091BC0000
:100210008823E4F78FEC97E00197F1F700C0000026
:10022000EBEBF0E080818D7F808384E88093BC00DD
:100230008091BC008823E4F70895EBEBF0E0908117
:100240009E7F908394E89093BC009091BC0099238A
:10025000E4F7EBEBF0E090819F70908394E890934B
:10026000BC009091BC009923E4F7EBEBF0E09081A7
:10027000807F892B808384E88093BC008091BC00C0
:100280008823E4F70E94FE000895CF93C82FEBEB7C
:10029000F0E080818E7F808384E88093BC00809131
:1002A000BC008823E4F7EBEBF0E080818F70808363
:1002B00084E88093BC008091BC008823E4F7EBEBDA
:1002C000F0E080819C2F907F892B808384E880934D
:1002D000BC008091BC008823E4F70E94FE00EBEB99
:1002E000F0E080818F70808384E88093BC008091EF
:1002F000BC008823E4F7EBEBF0E0208130E1C39F02
:10030000C0011124822B808384E88093BC008091FB
:10031000BC008823E4F70E94FE00CF910895CF939C
:10032000C82FEBEBF0E080818160808384E88093CC
:10033000BC008091BC008823E4F7EBEBF0E0808107
:100340008F70808384E88093BC008091BC008823F8
:10035000E4F7EBEBF0E080819C2F907F892B80838A
:1003600084E88093BC008091BC008823E4F70E945D
:10037000FE00EBEBF0E080818F70808384E8809357
:10038000BC008091BC008823E4F7EBEBF0E0208117
:1003900030E1C39FC0011124822B808384E88093C5
:1003A000BC008091BC008823E4F70E94FE00CF913E
:1003B000089580E30E941D0180E30E941D0180E2F8
:1003C0000E941D0188E20E9445018CE00E944501C7
:1003D00081E00E94450186E00E94450180E80E947C
:1003E00045010895CF93DF93EC0103C021960E944D
:1003F0008F0188818111FACFDF91CF910895CF933A
:10040000DF93EA0181110BC0603148F4862F8F70B1
:1004100080680E944501CE010E94F2010CC081302B
:1004200051F4603140F4862F8F70806C0E9445013A
:10043000CE010E94F201DF91CF910895EF92FF92D9
:100440000F931F93CF93DF938C017B01EA01CB01C4
:100450000E94F2012FEF82E597E02150804090400A
:10046000E1F700C00000C801880F991FC80FD91F0D
:10047000C7010E942C09998388830230110539F441
:1004800045E251E06AE080E00E94FF0109C00530CA
:10049000110531F448E251E060E081E00E94FF0183
:1004A000DF91CF911F910F91FF90EF900895EAE7B0
:1004B000F0E08081806480832FEF80E792E021501C
:1004C00080409040E1F700C000006091780070919A
:1004D000790080E094E00E9418096150710980E081
:1004E00090E00E94D0070E94CB080E949A07CB019F
:1004F0000895CF93DF93EC0188B1826088B92FEF24
:1005000082E597E0215080409040E1F700C0000074
:100510000E9457029983888388B18D7F88B92FEF15
:1005200089E698E1215080409040E1F700C000004A
:1005300088B1846088B92FEF82E597E02150804030
:100540009040E1F700C000000E9457029B838A831D
:1005500088B18B7F88B92FEF89E698E121508040E0
:100560009040E1F700C0000088B1886088B92FEFA3
:1005700082E597E0215080409040E1F700C0000004
:100580000E9457029D838C8388B1877F88B9DF9151
:10059000CF910895CF93DF93EC0181E00E94450154
:1005A0008BE291E00E94F2012FEF83ED90E3215066
:1005B00080409040E1F700C0000081E00E944501CA
:1005C0008CE391E00E94F201CE010E9479022FE7B4
:1005D00088E391E0215080409040E1F700C00000A6
:1005E000DF91CF910895CF93DF9300D000D000D05A
:1005F000CDB7DEB79A8389837C836B835E834D831B
:1006000020E030E080E090E011C0F901EE0FFF1F24
:1006100041E050E04C0F5D1FE40FF51F4081518118
:10062000841795070CF4CA012F5F3F4F2330310523
:1006300064F326960FB6F894DEBF0FBECDBFDF91F0
:10064000CF910895EF92FF920F931F93CF93DF9373
:10065000CDB7DEB762970FB6F894DEBF0FBECDBF41
:100660007C018B011A8219821C821B821E821D82D0
:1006700018861F821A8619861C861B861E861D8672
:10068000188A1F861A8A198A81E00E94450187E428
:1006900091E00E94F2012FEF83ED90E32150804022
:1006A0009040E1F700C0000081E00E94450183E531
:1006B00091E00E94F201EFE1FEE43197F1F700C012
:1006C0000000C7010E94790281E00E94450182E694
:1006D00091E00E94F201FFEF23ED80E3F150204012
:1006E0008040E1F700C0000081E00E94450183E501
:1006F00091E00E94F201EFE1FEE43197F1F700C0D2
:100700000000CE0101960E94790281E00E9445011D
:1007100080E791E00E94F201FFEF23ED80E3F150CA
:1007200020408040E1F700C0000081E00E944501C8
:1007300083E591E00E94F201EFE1FEE43197F1F7E9
:1007400000C00000CE0107960E94790281E00E945D
:1007500045018EE791E00E94F201FFEF23ED80E377
:10076000F15020408040E1F700C0000081E00E948D
:10077000450183E591E00E94F201EFE1FEE431974B
:10078000F1F700C00000CE010D960E94790281E0D1
:100790000E9445018CE891E00E94F2014D855E8542
:1007A0006F81788589819A810E94F302F801918393
:1007B00080834F85588969857A858B819C810E94C9
:1007C000F302F8019383828349895A896B857C857A
:1007D0008D819E810E94F302F80195838483629645
:1007E0000FB6F894DEBF0FBECDBFDF91CF911F9142
:1007F0000F91FF90EF900895CF93DF93FC01DB0101
:100800008081918144E6489FB001499F700D112479
:1008100082819381EC01CC0FDD1F9C01220F331FDD
:10082000220F331F220F331FCE01820F931F860F1B
:10083000971F24813581820F931F11969C938E936D
:1008400086819781489FB001499F700D1124808552
:100850009185EC01CC0FDD1F9C01220F331F220F6D
:10086000331F220F331FCE01820F931F860F971F56
:1008700022853385820F931F13969C938E93129734
:1008800084859585489FB001499F700D1124868508
:100890009785AC01440F551F9C01220F331F220F77
:1008A000331F220F331FCA01820F931F860F971F1A
:1008B00020893189820F931F15969C938E931497EC
:1008C000DF91CF910895CF92DF92EF92FF92CF9375
:1008D000DF93EB01C41BD50B681B790B072E000CB3
:1008E000880B990B0E94D20720E030E04FE753E4D9
:1008F0000E945E086B017C01BE01DD0F880B990B25
:100900000E94D2079B01AC01C701B6010E942807D3
:100910000E94CB080E949A07CB01992314F480E02F
:1009200090E0DF91CF91FF90EF90DF90CF9008950E
:1009300093E095BD9093B100823731F483E28093C8
:10094000B0006093B4000895873629F484B58362BB
:1009500084BD68BD0895823621F484B5836884BD62
:1009600067BD089520E030E00DC0F901EE0FFF1FD4
:10097000E80FF91F408151814F3F510509F044F4C0
:100980002F5F3F4F2330310584F380E090E00895DE
:1009900081E090E008956F927F928F929F92AF9244
:1009A000BF92CF92DF92EF92FF920F931F93CF935C
:1009B000DF93CDB7DEB764970FB6F894DEBF0FBEF6
:1009C000CDBF4C015B016A0181E00E944501F40149
:1009D00040815181F50160817181F60180819181B1
:1009E0000E946304682E792E8DE991E00E94F20145
:1009F0007F926F920F2EF0EAEF2EF1E0FF2EF02D96
:100A0000FF92EF928E010F5F1F4F1F930F930E9473
:100A10005B09C8010E94F201662D772D82E70E94D2
:100A20009804F40142815381F50162817381F601DA
:100A3000828193810E946304682E792E45E251E001
:100A40006AE080E00E94FF017F926F92FF92EF9236
:100A50001F930F930E945B09C8010E94F201662D4B
:100A6000772D87E60E949804F40144815581F501B1
:100A700064817581F601848195810E946304C82E8A
:100A8000D92E48E251E060E081E00E94FF01DF9250
:100A9000CF92FF92EF921F930F930E945B09C801C0
:100AA0000E94F2016C2D7D2D82E60E9498040FB603
:100AB000F894DEBF0FBECDBF64960FB6F894DEBFCC
:100AC0000FBECDBFDF91CF911F910F91FF90EF909F
:100AD000DF90CF90BF90AF909F908F907F906F905E
:100AE00008951092B40018BC17BC0895CF93DF93FB
:100AF000CDB7DEB7AA970FB6F894DEBF0FBECDBF55
:100B00008FEC84B988EE8AB98EEF87B980E4809340
:100B10007C008FE880937A0010927E00FE0131966F
:100B200082E1DF011D928A95E9F71C8A1B8A1E8AE1
:100B30001D8A188E1F8A1A8E198E1C8E1B8E1E8E71
:100B40001D8E18A21F8E1AA219A21CA21BA21EA2E1
:100B50001DA218A61FA21AA619A60E94E3000E94B1
:100B6000EC0080E70E94F4000E94D90183EA91E042
:100B70000E94F201BFEF28E08DE3B1502040804099
:100B8000E1F700C0000081E00E94450144EB51E024
:100B900060E080E00E94FF014CEB51E069E080E002
:100BA0000E94FF0144EC51E060E081E00E94FF01FF
:100BB0004CEC51E069E081E00E94FF01C12CD12C96
:100BC000A12CB12CE12CF12C0E9453008C0160E08F
:100BD00071E00E944A09892BB9F36DE071E0C80108
:100BE0000E944A09892B29F50E94710581E00E9423
:100BF00045018CE00E94450144ED51E063E080E056
:100C00000E94FF0140EE51E065E081E00E94FF019B
:100C10009FEFA9E6B8E19150A040B040E1F700C0D5
:100C20000000BE01675E7F4FCE0143960E94220303
:100C3000CBCF65E171E0C8010E944A09892B89F593
:100C40000E94710581E00E9445018CE00E944501EF
:100C500048EE51E065E080E00E94FF0140EE51E087
:100C600065E081E00E94FF012FEF89E698E12150C5
:100C700080409040E1F700C00000CE014F960E94F6
:100C8000CA02AE01415E5F4FBE01675E7F4FCE017B
:100C900043960E94CB04CC24C394D12CE12CF12C9C
:100CA00093CF6DE171E0C8010E944A09892BA1F53B
:100CB0000E9471051092FF011092FE0181E00E94D6
:100CC00045018CE00E94450146EC51E066E080E081
:100CD0000E94FF0140EE51E065E081E00E94FF01CB
:100CE000AFEFB9E628E1A150B0402040E1F700C0E5
:100CF000000081E00E9445018DE991E00E94F2012F
:100D00008EE00E944501C12CD12CAA24A394B12CC1
:100D1000EE24E394F12C58CF63E271E0C8010E9405
:100D20004A09892B61F50E94710581E0C816D1043A
:100D300079F4CE014F960E94CA02AE01415E5F4F28
:100D4000BE01675E7F4FCE0143960E94CB043CCF2D
:100D500091E0E916F10409F037CF1092FF011092EB
:100D6000FE0181E00E9445018DE991E00E94F201BF
:100D70008EE00E944501AA24A394B12C25CF61E204
:100D800071E0C8010E944A09892B09F41DCF62EB6A
:100D900071E0C8010E944A09892B09F415CFA1E02E
:100DA000EA16F10409F010CFB1E0AB16B10409F076
:100DB0000BCFAE014F5F5F4FB8018091FE01909164
:100DC000FF010E941E028091FE019091FF01019699
:100DD0009093FF018093FE01099709F0F5CE1092E0
:100DE000FF011092FE018CE00E9445012FEF89E681
:100DF00098E1215080409040E1F700C00000BE0122
:100E00006B5D7F4FCE0101960E94FC03CE0185965B
:100E10000E94B204892B91F46DA17EA182E70E9409
:100E200098046FA178A587E60E94980469A57AA521
:100E300082E60E949804A12CB12CC6CE81E00E94CB
:100E4000450180EF91E00E94F201A12CB12CBCCEB3
:100E50000E943C070C9424080E941D0858F00E9430
:100E6000160840F029F45F3F29F00C940D08511149
:100E70000C9458080C9413080E94350868F39923C1
:100E8000B1F3552391F3951B550BBB27AA27621786
:100E90007307840738F09F5F5F4F220F331F441F93
:100EA000AA1FA9F335D00E2E3AF0E0E832D09150C7
:100EB0005040E695001CCAF72BD0FE2F29D0660FB4
:100EC000771F881FBB1F261737074807AB07B0E8F7
:100ED00009F0BB0B802DBF01FF2793585F4F3AF0FD
:100EE0009E3F510578F00C940D080C9458085F3F14
:100EF000E4F3983ED4F3869577956795B795F79583
:100F00009F5FC9F7880F911D9695879597F908956A
:100F1000E1E0660F771F881FBB1F62177307840706
:100F2000BA0720F0621B730B840BBA0BEE1F88F715
:100F3000E09508950E94A1076894B1110C94580897
:100F400008950E943D0888F09F5798F0B92F99277F
:100F5000B751B0F0E1F0660F771F881F991F1AF0A4
:100F6000BA95C9F714C0B13091F00E945708B1E0AA
:100F700008950C945708672F782F8827B85F39F0A9
:100F8000B93FCCF3869577956795B395D9F73EF43D
:100F900090958095709561957F4F8F4F9F4F0895E5
:100FA000E89409C097FB3EF4909580957095619503
:100FB0007F4F8F4F9F4F9923A9F0F92F96E9BB27B9
:100FC0009395F695879577956795B795F111F8CF35
:100FD000FAF4BB0F11F460FF1BC06F5F7F4F8F4FA0
:100FE0009F4F16C0882311F096E911C0772321F096
:100FF0009EE8872F762F05C0662371F096E8862F2E
:1010000070E060E02AF09A95660F771F881FDAF784
:10101000880F9695879597F9089597F99F6780E8C7
:1010200070E060E008959FEF80EC089500240A943A
:101030001616170618060906089500240A941216B3
:101040001306140605060895092E0394000C11F4E6
:10105000882352F0BB0F40F4BF2B11F460FF04C093
:101060006F5F7F4F8F4F9F4F089557FD9058440FEC
:10107000551F59F05F3F71F04795880F97FB991FF7
:1010800061F09F3F79F087950895121613061406B4
:10109000551FF2CF4695F1DF08C016161706180641
:1010A000991FF1CF86957105610508940895E8941C
:1010B000BB2766277727CB0197F908950E9471080F
:1010C0000C9424080E94160838F00E941D0820F095
:1010D000952311F00C940D080C94130811240C9412
:1010E00058080E94350870F3959FC1F3950F50E0A2
:1010F000551F629FF001729FBB27F00DB11D639FCA
:10110000AA27F00DB11DAA1F649F6627B00DA11D6F
:10111000661F829F2227B00DA11D621F739FB00D15
:10112000A11D621F839FA00D611D221F749F332785
:10113000A00D611D231F849F600D211D822F762F1E
:101140006A2F11249F5750409AF0F1F088234AF0FB
:10115000EE0FFF1FBB1F661F771F881F9150504067
:10116000A9F79E3F510580F00C940D080C94580887
:101170005F3FE4F3983ED4F3869577956795B795EE
:10118000F795E7959F5FC1F7FE2B880F911D969508
:10119000879597F908950E943D08E8F09E37E8F09A
:1011A0009639B8F49E3848F4672F782F8827985FCF
:1011B000F9CF86957795679593959539D0F3B62FA6
:1011C000B1706B0F711D811D20F487957795679520
:1011D00093950C94EF080C940A090C9458088823F2
:1011E00071F4772321F09850872B762F07C0662360
:1011F00011F499270DC09051862B70E060E02AF021
:101200009A95660F771F881FDAF7880F969587954E
:1012100097F908959F3F31F0915020F48795779585
:101220006795B795880F911D9695879597F90895BD
:10123000AA1BBB1B51E107C0AA1FBB1FA617B707FC
:1012400010F0A61BB70B881F991F5A95A9F7809518
:101250009095BC01CD010895FC0188279927E89459
:1012600021912032E9F3293010F02E30C8F32B32CF
:1012700041F02D3239F4689404C00E945309820F62
:10128000911D219120532A30C0F31EF49095819531
:101290009F4F0895FB01DC018D9101908019011091
:1012A000D9F3990B08957AE0979F902D879F802D11
:1012B000910D11240895AEE0B0E0E1E6F9E00C9460
:1012C0001C0C0D891E8986E08C831A8309838FEF9D
:1012D0009FE79E838D83AE01475E5F4F6F89788D58
:1012E000CE0101960E947D09EF81F885E00FF11F84
:1012F00010822E96E4E00C94380CABE0B0E0E3E80A
:10130000F9E00C940E0C6C017B018A01FC01178240
:101310001682838181FFCCC1CE0101963C01F6018A
:101320009381F70193FD859193FF81917F0188233C
:1013300009F4BAC1853239F493FD859193FF819107
:101340007F01853229F4B60190E00E94740BE7CF4B
:10135000912C212C312CFFE1F315D8F08B3279F050
:1013600038F4803279F08332A1F4232D20611DC03E
:101370008D3261F0803369F4232D216016C0832DF6
:101380008260382EE32DE4603E2E2AC0F32DF860F3
:101390001DC037FC2DC020ED280F2A3040F08E32C2
:1013A000B9F436FC81C1232D2064322E19C036FEDB
:1013B00006C08AE0989E200D1124922E11C0EAE00A
:1013C0002E9E200D1124222EF32DF0623F2E08C0F8
:1013D0008C3621F4832D8068382E02C0883641F483
:1013E000F70193FD859193FF81917F018111B3CF27
:1013F000982F9F7D9554933028F40C5F1F4F9FE3E7
:1014000099830DC0833631F0833771F0833509F04D
:1014100059C021C0F801808189830E5F1F4F882445
:101420008394912C530113C02801F2E04F0E511CFC
:10143000F801A080B18036FE03C0692D70E002C0C3
:101440006FEF7FEFC5010E94690B4C018201F32D04
:10145000FF773F2E16C0280122E0420E511CF801F2
:10146000A080B18036FE03C0692D70E002C06FEF2E
:101470007FEFC5010E945E0B4C01F32DF0683F2EFB
:10148000820133FC1BC0822D90E088169906B0F4CF
:10149000B60180E290E00E94740B2A94F4CFF5012B
:1014A00037FC859137FE81915F01B60190E00E9483
:1014B000740B21102A9421E0821A9108811491045E
:1014C00071F7E8C0843611F0893641F5F80137FE2E
:1014D00007C060817181828193810C5F1F4F08C0BA
:1014E00060817181072E000C880B990B0E5F1F4FD6
:1014F000F32DFF763F2E97FF09C09095809570954C
:1015000061957F4F8F4F9F4FF0683F2E2AE030E06C
:10151000A3010E94B00B882E861845C0853731F490
:10152000232D2F7EB22E2AE030E025C0932D997F07
:10153000B92E8F36C1F018F4883579F0B5C08037F0
:1015400019F0883721F0B0C0E92FE061BE2EB4FE5B
:101550000DC0FB2DF460BF2E09C034FE0AC0292F38
:101560002660B22E06C028E030E005C020E130E061
:1015700002C020E132E0F801B7FE07C0608171814E
:10158000828193810C5F1F4F06C06081718180E072
:1015900090E00E5F1F4FA3010E94B00B882E8618AB
:1015A000FB2DFF773F2E36FE0DC0232D2E7FA22E62
:1015B000891458F434FE0BC032FC09C0832D8E7E92
:1015C000A82E05C0B82CA32C03C0B82C01C0B92C80
:1015D000A4FE0FC0FE01E80DF11D8081803321F4CF
:1015E0009A2D997EA92E09C0A2FE06C0B394B39489
:1015F00004C08A2D867809F0B394A3FC11C0A0FE24
:1016000006C0B21488F4280C922C9B180EC0B21499
:1016100060F4B60180E290E00E94740BB394F7CFBF
:10162000B21418F42B1802C0982C212CA4FE10C060
:10163000B60180E390E00E94740BA2FE17C0A1FCEB
:1016400003C088E790E002C088E590E0B6010CC0D6
:101650008A2D867859F0A1FE02C08BE201C080E29B
:10166000A7FC8DE2B60190E00E94740B891438F457
:10167000B60180E390E00E94740B9A94F7CF8A94AD
:10168000F301E80DF11D8081B60190E00E94740B1A
:101690008110F5CF222009F442CEB60180E290E01D
:1016A0000E94740B2A94F6CFF6018681978102C0BE
:1016B0008FEF9FEF2B96E2E10C942A0CFC01059032
:1016C000615070400110D8F7809590958E0F9F1F44
:1016D0000895FC016150704001900110D8F7809589
:1016E00090958E0F9F1F08950F931F93CF93DF93B5
:1016F000FB01238121FD03C08FEF9FEF2CC022FF50
:1017000016C046815781248135814217530744F41E
:10171000A081B1819D012F5F3F4F318320838C9346
:10172000268137812F5F3F4F3783268314C08B017B
:10173000EC01FB010084F185E02D0995892BE1F690
:10174000D80116968D919C911797019617969C93A8
:101750008E931697CE01DF91CF911F910F9108952F
:10176000FA01AA27283051F1203181F1E8946F93D2
:101770006E7F6E5F7F4F8F4F9F4FAF4FB1E03ED078
:10178000B4E03CD0670F781F891F9A1FA11D680F16
:10179000791F8A1F911DA11D6A0F711D811D911D49
:1017A000A11D20D009F468943F912AE0269F1124BE
:1017B0003019305D3193DEF6CF010895462F477022
:1017C000405D4193B3E00FD0C9F7F6CF462F4F707D
:1017D000405D4A3318F0495D31FD4052419302D0DB
:1017E000A9F7EACFB4E0A695979587957795679581
:1017F000BA95C9F700976105710508959B01AC0181
:101800000A2E06945795479537952795BA95C9F7A7
:10181000620F731F841F951FA01D08952F923F9282
:101820004F925F926F927F928F929F92AF92BF92F0
:10183000CF92DF92EF92FF920F931F93CF93DF939C
:10184000CDB7DEB7CA1BDB0B0FB6F894DEBF0FBEF9
:10185000CDBF09942A88398848885F846E847D8446
:101860008C849B84AA84B984C884DF80EE80FD8048
:101870000C811B81AA81B981CE0FD11D0FB6F894BE
:0E188000DEBF0FBECDBFED010895F894FFCF7F
:10188E004E4F5F4B4559003100320033004100345A
:10189E000035003600420037003800390043003072
:1018AE000023004400473A00423A005075742074F9
:1018BE00686520436F6C6F722E2E2E0053656E730B
:1018CE00696E672E2E2E00507574205768697465E8
:1018DE002E2E0043616C6962726174696E672E2EE2
:1018EE002E0050757420436F6C6F725F312E2E0078
:1018FE0050757420436F6C6F725F322E2E005075D0
:10190E007420436F6C6F725F332E2E0043616C69CF
:10191E0062726174696F6E20646F6E6500523A0078
:10192E002564002A2A2A2A57454C434F4D452A2A18
:10193E002A2A2A00413A43616C696200423A536591
:10194E006E736500433A496E70757400443A526581
:10195E007365740043616C6962726174696E6700CD
:10196E004D6F64652E2E2E0053656E73696E670083
:0E197E0056616C7565204572726F7221000013
:00000001FF
