:100000000C9434000C9451000C9451000C94510049
:100010000C9451000C9451000C9451000C9451001C
:100020000C9451000C9451000C9451000C9451000C
:100030000C9451000C9451000C9451000C945100FC
:100040000C9451000C9451000C9451000C945100EC
:100050000C9451000C9451000C9451000C945100DC
:100060000C9451000C94510011241FBECFEFD8E026
:10007000DEBFCDBF11E0A0E0B1E0ECE2FAE102C0EA
:1000800005900D92A63DB107D9F721E0A6EDB1E0AC
:1000900001C01D92A83DB207E1F70E94EF050C9444
:1000A000140D0C94000081E085B983B1813119F001
:1000B00080E091E002C088E691E023B1213211F4A2
:1000C00083E791E023B1213411F48EE791E023B16D
:1000D000213811F487E091E02FE738E341E0215027
:1000E00030404040E1F700C0000022E025B923B1D4
:1000F000223111F489E091E023B1223211F48BE036
:1001000091E023B1223411F48DE091E023B1223843
:1001100011F48FE091E02FE738E341E021503040C7
:100120004040E1F700C0000024E025B923B12431AC
:1001300011F481E191E023B1243211F483E191E0E3
:1001400023B1243411F485E191E023B1243811F472
:1001500087E191E02FE738E341E021503040404013
:10016000E1F700C0000028E025B923B1283111F4DF
:1001700086EA91E023B1283211F489E191E023B1BC
:10018000283411F48BE191E023B1283811F48DE18A
:1001900091E02FE738E341E0215030404040E1F763
:1001A00000C00000089582E68093B80084E0809348
:1001B000BC001092B900089584EA8093BC0080913D
:1001C000BC008823E4F708958093BB0084E8809303
:1001D000BC008091BC008823E4F70895EBEBF0E0CD
:1001E00080818260808384E88093BC008091BC0021
:1001F0008823E4F78FEC97E00197F1F700C0000047
:10020000EBEBF0E080818D7F808384E88093BC00FD
:100210008091BC008823E4F70895EBEBF0E0908137
:100220009E7F908394E89093BC009091BC009923AA
:10023000E4F7EBEBF0E090819F70908394E890936B
:10024000BC009091BC009923E4F7EBEBF0E09081C7
:10025000807F892B808384E88093BC008091BC00E0
:100260008823E4F70E94EE000895CF93C82FEBEBAC
:10027000F0E080818E7F808384E88093BC00809151
:10028000BC008823E4F7EBEBF0E080818F70808383
:1002900084E88093BC008091BC008823E4F7EBEBFA
:1002A000F0E080819C2F907F892B808384E880936D
:1002B000BC008091BC008823E4F70E94EE00EBEBC9
:1002C000F0E080818F70808384E88093BC0080910F
:1002D000BC008823E4F7EBEBF0E0208130E1C39F22
:1002E000C0011124822B808384E88093BC0080911C
:1002F000BC008823E4F70E94EE00CF910895CF93CD
:10030000C82FEBEBF0E080818160808384E88093EC
:10031000BC008091BC008823E4F7EBEBF0E0808127
:100320008F70808384E88093BC008091BC00882318
:10033000E4F7EBEBF0E080819C2F907F892B8083AA
:1003400084E88093BC008091BC008823E4F70E947D
:10035000EE00EBEBF0E080818F70808384E8809387
:10036000BC008091BC008823E4F7EBEBF0E0208137
:1003700030E1C39FC0011124822B808384E88093E5
:10038000BC008091BC008823E4F70E94EE00CF916E
:10039000089580E30E940D0180E30E940D0180E238
:1003A0000E940D0188E20E9435018CE00E94350117
:1003B00081E00E94350186E00E94350180E80E94BC
:1003C00035010895CF93DF93EC0103C021960E947D
:1003D0007F0188818111FACFDF91CF910895CF936A
:1003E000DF93EA0181110BC0603148F4862F8F70D2
:1003F00080680E943501CE010E94E2010CC081306C
:1004000051F4603140F4862F8F70806C0E9435016A
:10041000CE010E94E201DF91CF910895EF92FF9209
:100420000F931F93CF93DF938C017B01EA01CB01E4
:100430000E94E2012FEF82E597E02150804090403A
:10044000E1F700C00000C801880F991FC80FD91F2D
:10045000C7010E94FB09998388830230110539F492
:100460004FE151E06AE080E00E94EF0109C00530F1
:10047000110531F442E251E060E081E00E94EF01B9
:10048000DF91CF911F910F91FF90EF9008958F9280
:100490009F92AF92BF92CF92DF92EF92FF928091A4
:1004A0007800909179009C01220F331F220F331F97
:1004B000820F931F692F6695669570E080E090E04B
:1004C0000E948F086B017C0120E030E040E251E4A3
:1004D0000E9441094B015C01A701960160E070E0B8
:1004E00080EA90E40E9475079B01AC01C501B4014C
:1004F0000E94E707FF90EF90DF90CF90BF90AF9002
:100500009F908F900895CF93DF93EC018BB1816022
:100510008BB92FEF82E597E0215080409040E1F7C2
:1005200000C000000E944702688379838A839B830E
:100530008BB18E7F8BB98BB182608BB92FEF82E547
:1005400097E0215080409040E1F700C000000E94F9
:1005500047026C837D838E839F838BB18D7F8BB9A4
:100560008BB184608BB92FEF82E597E021508040FA
:100570009040E1F700C000000E9447026887798739
:100580008A879B878BB18B7F8BB9DF91CF91089541
:10059000CF93DF93EC0181E00E94350185E291E089
:1005A0000E94E2012FEF83ED90E3215080409040C4
:1005B000E1F700C0000081E00E94350186E391E090
:1005C0000E94E201CE010E94830281E00E94350177
:1005D00081E491E00E94E201DF91CF9108958F9232
:1005E0009F92AF92BF92CF92DF92EF92FF920F93C2
:1005F0001F93CF93DF93CDB7DEB72C970FB6F89448
:10060000DEBF0FBECDBF69837A838B839C832D832E
:100610003E834F835887E986FA860B871C8700E064
:1006200010E0A12CB12C912C812C21C0F801EE0FEF
:10063000FF1FEE0FFF1F81E090E08C0F9D1FE80F62
:10064000F91FC080D180E280F3802C2D3D2D4E2DEE
:100650005F2D6A2D7B2D892D982D0E94E20788231E
:1006600024F4AC2CBD2C9E2C8F2C0F5F1F4F03301D
:100670001105E4F26A2D7B2D892D982D2C960FB64D
:10068000F894DEBF0FBECDBFDF91CF911F910F91C8
:10069000FF90EF90DF90CF90BF90AF909F908F90A2
:1006A0000895CF92DF92EF92FF920F931F93CF9313
:1006B000DF93CDB7DEB7A4970FB6F894DEBF0FBEB9
:1006C000CDBF8C016B0119821A821B821C821D8294
:1006D0001E821F82188619861A861B861C861D8616
:1006E0001E861F86188A198A1A8A1B8A1C8A1D8AE6
:1006F0001E8A1F8A188E198E1A8E1B8E1C8E1D8EB6
:100700001E8E1F8E18A219A21AA21BA21CA281E083
:100710000E94350186E491E00E94E2012FEF83ED13
:1007200090E3215080409040E1F700C0000081E05C
:100730000E94350180E591E00E94E201EFE1FEE4D4
:100740003197F1F700C00000C8010E94830281E0E8
:100750000E9435018FE591E00E94E201FFEF23ED59
:1007600080E3F15020408040E1F700C0000081E0CC
:100770000E94350180E591E00E94E201EFE1FEE494
:100780003197F1F700C00000CE0101960E9483026C
:1007900081E00E9435018AE691E00E94E201FFEFCC
:1007A00023ED80E3F15020408040E1F700C00000DD
:1007B00081E00E94350180E591E00E94E201EFE1D5
:1007C000FEE43197F1F700C00000CE010D960E94C3
:1007D000830281E00E94350185E791E00E94E201F9
:1007E000FFEF23ED80E3F15020408040E1F700C0AF
:1007F000000081E00E94350180E591E00E94E20165
:10080000EFE1FEE43197F1F700C00000CE01499618
:100810000E94830281E00E94350180E891E00E94FD
:10082000E201E98CFA8C0B8D1C8D2D853E854F8560
:10083000588969817A818B819C810E94EF02F6013F
:100840006083718382839383ED8CFE8C0F8D18A15E
:1008500029893A894B895C896D817E818F81988550
:100860000E94EF02F6016483758386839783E9A073
:10087000FAA00BA11CA12D893E894F89588D69854D
:100880007A858B859C850E94EF02F60160877187CF
:1008900082879387A4960FB6F894DEBF0FBECDBFB4
:1008A000DF91CF911F910F91FF90EF90DF90CF904C
:1008B0000895CF93DF93FC01DB018081918144E6B1
:1008C000489FB001499F700D112482819381EC01F2
:1008D000CC0FDD1F9C01220F331F220F331F220F6D
:1008E000331FCE01820F931F860F971F24813581FE
:1008F000820F931F11969C938E9386819781489FB8
:10090000B001499F700D112480859185EC01CC0FB9
:10091000DD1F9C01220F331F220F331F220F331FB5
:10092000CE01820F931F860F971F22853385820F7A
:10093000931F13969C938E93129784859585489F59
:10094000B001499F700D112486859785AC01440F35
:10095000551F9C01220F331F220F331F220F331FFD
:10096000CA01820F931F860F971F20893189820F3A
:10097000931F15969C938E931497DF91CF910895B2
:100980004F925F926F927F928F929F92AF92BF929F
:10099000CF92DF92EF92FF920F931F9349015A017A
:1009A000270138019B01AC01C501B4010E94750704
:1009B0006B017C01A3019201C501B4010E9475077E
:1009C0009B01AC01C701B6010E94E70720E030E0BF
:1009D0004FE753E40E9441090E94AE090E94590862
:1009E000CB011F910F91FF90EF90DF90CF90BF90C0
:1009F000AF909F908F907F906F905F904F900895F1
:100A000093E095BD9093B100823731F483E28093F7
:100A1000B0006093B4000895873629F484B58362EA
:100A200084BD68BD0895823621F484B5836884BD91
:100A300067BD089520E030E00DC0F901EE0FFF1F03
:100A4000E80FF91F408151814F3F510509F044F4EF
:100A50002F5F3F4F2330310584F380E090E008950D
:100A600081E090E008954F925F926F927F928F9213
:100A70009F92AF92BF92CF92DF92EF92FF920F932D
:100A80001F93CF93DF93CDB7DEB764970FB6F8947B
:100A9000DEBF0FBECDBF3C014B012A0181E00E94A9
:100AA0003501F301E080F18002811381F40120819E
:100AB000318142815381F201608171818281938110
:100AC0000E94C004082F192F81E991E00E94E201E1
:100AD0001F930F930F2EF4E9AF2EF1E0BF2EF02DF0
:100AE000BF92AF92CE0101966C019F938F930E94AB
:100AF0002A0AC6010E94E201602F712F82E70E943C
:100B00000005F301E480F58006811781F40124815A
:100B1000358146815781F201648175818681978193
:100B20000E94C004082F192F4FE151E06AE080E0D5
:100B30000E94EF011F930F93BF92AF92DF92CF926B
:100B40000E942A0AC6010E94E201602F712F87E6E7
:100B50000E940005F301E084F18402851385F4010D
:100B60002085318542855385F201608571858285B6
:100B700093850E94C004882E992E42E251E060E0E5
:100B800081E00E94EF019F928F92BF92AF92DF921D
:100B9000CF920E942A0AC6010E94E201682D792D97
:100BA00082E60E9400050FB6F894DEBF0FBECDBFEF
:100BB00064960FB6F894DEBF0FBECDBFDF91CF9124
:100BC0001F910F91FF90EF90DF90CF90BF90AF906B
:100BD0009F908F907F906F905F904F900895CF93EC
:100BE000DF93CDB7DEB7EC970FB6F894DEBF0FBE3C
:100BF000CDBF8FE084B98FEF8AB98EEF87B980E4DB
:100C000080937C00EAE7F0E08FE8808310927E001A
:100C1000808180648083FE01319682E1DF011D9234
:100C20008A95E9F71B8A1C8A1D8A1E8A1F8A188EDC
:100C3000198E1A8E1B8E1C8E1D8E1E8E1F8E18A254
:100C400019A21AA21BA21CA21DA21EA21FA218A6B4
:100C500019A61AA61BA61CA61DA61EA61FA618AA84
:100C600019AA1AAA1BAA1CAA1DAA1EAA18AE1FAA54
:100C70001AAE19AE1CAE1BAE0E94D3000E94DC005F
:100C800080E70E94E4000E94C90187E991E00E9488
:100C9000E201C12CD12CE12CF12C0E9453008C01DB
:100CA00060E071E00E94190A892BB9F367E071E0F6
:100CB000C8010E94190A892B19F581E00E943501AB
:100CC0008CE00E94350148EA51E063E080E00E9438
:100CD000EF0144EB51E065E081E00E94EF01BFEFDE
:100CE00029E688E1B15020408040E1F700C00000D3
:100CF000BE01615E7F4FCE0143960E945103CDCF6E
:100D00006FE071E0C8010E94190A892B79F581E032
:100D10000E9435018CE00E9435014CEB51E065E00A
:100D200080E00E94EF0144EB51E065E081E00E9429
:100D3000EF019FEFA9E6B8E19150A040B040E1F784
:100D400000C00000CE018B960E94C802AE01455D36
:100D50005F4FBE01615E7F4FCE0143960E94330517
:100D6000CC24C394D12CE12CF12C97CF67E171E016
:100D7000C8010E94190A892B79F51092D7011092A7
:100D8000D60181E00E9435018CE00E94350144ECDF
:100D900051E066E080E00E94EF0144EB51E065E045
:100DA00081E00E94EF012FEF89E698E12150804019
:100DB0009040E1F700C0000081E00E94350181E928
:100DC00091E00E94E2018EE00E943501C12CD12CFD
:100DD000EE24E394F12C61CF6DE171E0C8010E9433
:100DE000190A892B59F51092B40018BC17BCA1E060
:100DF000CA16D10479F4CE018B960E94C802AE01C6
:100E0000455D5F4FBE01615E7F4FCE0143960E94FC
:100E1000330543CFB1E0EB16F10409F03ECF109259
:100E2000D7011092D60181E00E94350181E991E05D
:100E30000E94E2018EE00E9435012FCF6BE171E04C
:100E4000C8010E94190A892B09F427CF66EA71E0CC
:100E5000C8010E94190A892B09F41FCF21E0E2166C
:100E6000F10409F01ACFAE014F5F5F4FB8018091D6
:100E7000D6019091D7010E940E028091D6019091E7
:100E8000D70101969093D7018093D601099709F075
:100E900004CF1092D7011092D6018CE00E94350148
:100EA000BE01695C7F4FCE0101960E945904CE01BC
:100EB000C7960E941A05892B81F46FA978AD82E745
:100EC0000E94000569AD7AAD87E60E9400056BAD12
:100ED0007CAD82E60E940005E0CE81E00E943501F3
:100EE0008AEC91E00E94E201D8CE5058BB27AA2795
:100EF0000E948D070C9407090E94F90838F00E949F
:100F0000000920F039F49F3F19F426F40C94F608F8
:100F10000EF4E095E7FB0C94F008E92F0E94180905
:100F200058F3BA17620773078407950720F079F41E
:100F3000A6F50C943A090EF4E0950B2EBA2FA02DCD
:100F40000B01B90190010C01CA01A0011124FF2776
:100F5000591B99F0593F50F4503E68F11A16F04071
:100F6000A22F232F342F4427585FF3CF4695379570
:100F70002795A795F0405395C9F77EF41F16BA0B35
:100F8000620B730B840BBAF09150A1F0FF0FBB1FE3
:100F9000661F771F881FC2F70EC0BA0F621F731F2C
:100FA000841F48F4879577956795B795F7959E3F89
:100FB00008F0B0CF9395880F08F09927EE0F97951A
:100FC000879508950E94CC0808F481E008950E9456
:100FD000FB070C9407090E94000958F00E94F908C9
:100FE00040F029F45F3F29F00C94F00851110C9463
:100FF0003B090C94F6080E94180968F39923B1F391
:10100000552391F3951B550BBB27AA27621773072E
:10101000840738F09F5F5F4F220F331F441FAA1FC2
:10102000A9F335D00E2E3AF0E0E832D0915050407E
:10103000E695001CCAF72BD0FE2F29D0660F771F2C
:10104000881FBB1F261737074807AB07B0E809F012
:10105000BB0B802DBF01FF2793585F4F3AF09E3F97
:10106000510578F00C94F0080C943B095F3FE4F3D1
:10107000983ED4F3869577956795B795F7959F5FDA
:10108000C9F7880F911D9695879597F90895E1E026
:10109000660F771F881FBB1F621773078407BA0785
:1010A00020F0621B730B840BBA0BEE1F88F7E095E0
:1010B00008950E9460086894B1110C943B0908954A
:1010C0000E94200988F09F5798F0B92F9927B751AF
:1010D000B0F0E1F0660F771F881F991F1AF0BA95DC
:1010E000C9F714C0B13091F00E943A09B1E00895F7
:1010F0000C943A09672F782F8827B85F39F0B93FE9
:10110000CCF3869577956795B395D9F73EF490958E
:101110008095709561957F4F8F4F9F4F0895E8940C
:1011200009C097FB3EF490958095709561957F4F2F
:101130008F4F9F4F9923A9F0F92F96E9BB279395DD
:10114000F695879577956795B795F111F8CFFAF4ED
:10115000BB0F11F460FF1BC06F5F7F4F8F4F9F4F1E
:1011600016C0882311F096E911C0772321F09EE87C
:10117000872F762F05C0662371F096E8862F70E0E2
:1011800060E02AF09A95660F771F881FDAF7880FBC
:101190009695879597F90895990F0008550FAA0B12
:1011A000E0E8FEEF16161706E807F907C0F012167A
:1011B0001306E407F50798F0621B730B840B950B7D
:1011C00039F40A2661F0232B242B252B21F40895D2
:1011D0000A2609F4A140A6958FEF811D811D08956F
:1011E00097F99F6780E870E060E008959FEF80ECDA
:1011F000089500240A94161617061806090608957D
:1012000000240A9412161306140605060895092EE2
:101210000394000C11F4882352F0BB0F40F4BF2B51
:1012200011F460FF04C06F5F7F4F8F4F9F4F089591
:1012300057FD9058440F551F59F05F3F71F0479587
:10124000880F97FB991F61F09F3F79F0879508956C
:10125000121613061406551FF2CF4695F1DF08C08B
:10126000161617061806991FF1CF869571056105A8
:1012700008940895E894BB2766277727CB0197F950
:1012800008950E9454090C9407090E94F90838F047
:101290000E94000920F0952311F00C94F0080C94A2
:1012A000F60811240C943B090E94180970F3959FCD
:1012B000C1F3950F50E0551F629FF001729FBB274D
:1012C000F00DB11D639FAA27F00DB11DAA1F649FE9
:1012D0006627B00DA11D661F829F2227B00DA11D9C
:1012E000621F739FB00DA11D621F839FA00D611D22
:1012F000221F749F3327A00D611D231F849F600D43
:10130000211D822F762F6A2F11249F5750409AF06B
:10131000F1F088234AF0EE0FFF1FBB1F661F771FF7
:10132000881F91505040A9F79E3F510580F00C94C2
:10133000F0080C943B095F3FE4F3983ED4F38695A4
:1013400077956795B795F795E7959F5FC1F7FE2B62
:10135000880F911D9695879597F908950E94200909
:10136000E8F09E37E8F09639B8F49E3848F4672FD5
:10137000782F8827985FF9CF86957795679593950D
:101380009539D0F3B62FB1706B0F711D811D20F40C
:1013900087957795679593950C94D2090C94ED09F0
:1013A0000C943B09882371F4772321F09850872B04
:1013B000762F07C0662311F499270DC09051862B14
:1013C00070E060E02AF09A95660F771F881FDAF7C1
:1013D000880F9695879597F908959F3F31F0915022
:1013E00020F4879577956795B795880F911D969509
:1013F000879597F90895FC0188279927E89421910A
:101400002032E9F3293010F02E30C8F32B3241F0AE
:101410002D3239F4689404C00E94220A820F911D73
:10142000219120532A30C0F31EF4909581959F4F4F
:101430000895FB01DC018D91019080190110D9F311
:10144000990B08957AE0979F902D879F802D910D9D
:1014500011240895AEE0B0E0E0E3FAE00C94EB0C68
:101460000D891E8986E08C831A8309838FEF9FE79D
:101470009E838D83AE01475E5F4F6F89788DCE016D
:1014800001960E944C0AEF81F885E00FF11F10824F
:101490002E96E4E00C94070DABE0B0E0E2E5FAE054
:1014A0000C94DD0C6C017B018A01FC011782168211
:1014B000838181FFCCC1CE0101963C01F60193816D
:1014C000F70193FD859193FF81917F01882309F4B2
:1014D000BAC1853239F493FD859193FF81917F01E3
:1014E000853229F4B60190E00E94430CE7CF912C9D
:1014F000212C312CFFE1F315D8F08B3279F038F440
:10150000803279F08332A1F4232D20611DC08D3209
:1015100061F0803369F4232D216016C0832D826031
:10152000382EE32DE4603E2E2AC0F32DF8601DC056
:1015300037FC2DC020ED280F2A3040F08E32B9F450
:1015400036FC81C1232D2064322E19C036FE06C020
:101550008AE0989E200D1124922E11C0EAE02E9E62
:10156000200D1124222EF32DF0623F2E08C08C3660
:1015700021F4832D8068382E02C0883641F4F701AB
:1015800093FD859193FF81917F018111B3CF982FB6
:101590009F7D9554933028F40C5F1F4F9FE39983F0
:1015A0000DC0833631F0833771F0833509F059C0AF
:1015B00021C0F801808189830E5F1F4F88248394A6
:1015C000912C530113C02801F2E04F0E511CF80179
:1015D000A080B18036FE03C0692D70E002C06FEFBD
:1015E0007FEFC5010E94380C4C018201F32DFF777B
:1015F0003F2E16C0280122E0420E511CF801A080A7
:10160000B18036FE03C0692D70E002C06FEF7FEF3E
:10161000C5010E942D0C4C01F32DF0683F2E820174
:1016200033FC1BC0822D90E088169906B0F4B601F9
:1016300080E290E00E94430C2A94F4CFF50137FC3D
:10164000859137FE81915F01B60190E00E94430CC5
:1016500021102A9421E0821A91088114910471F7D3
:10166000E8C0843611F0893641F5F80137FE07C02D
:1016700060817181828193810C5F1F4F08C06081FE
:101680007181072E000C880B990B0E5F1F4FF32DF5
:10169000FF763F2E97FF09C09095809570956195D4
:1016A0007F4F8F4F9F4FF0683F2E2AE030E0A3011D
:1016B0000E947F0C882E861845C0853731F4232D73
:1016C0002F7EB22E2AE030E025C0932D997FB92ECF
:1016D0008F36C1F018F4883579F0B5C0803719F02D
:1016E000883721F0B0C0E92FE061BE2EB4FE0DC0F6
:1016F000FB2DF460BF2E09C034FE0AC0292F2660DE
:10170000B22E06C028E030E005C020E130E002C083
:1017100020E132E0F801B7FE07C06081718182816B
:1017200093810C5F1F4F06C06081718180E090E063
:101730000E5F1F4FA3010E947F0C882E8618FB2D81
:10174000FF773F2E36FE0DC0232D2E7FA22E89144B
:1017500058F434FE0BC032FC09C0832D8E7EA82EB7
:1017600005C0B82CA32C03C0B82C01C0B92CA4FE12
:101770000FC0FE01E80DF11D8081803321F49A2D08
:10178000997EA92E09C0A2FE06C0B394B39404C0EA
:101790008A2D867809F0B394A3FC11C0A0FE06C080
:1017A000B21488F4280C922C9B180EC0B21460F46A
:1017B000B60180E290E00E94430CB394F7CFB214DC
:1017C00018F42B1802C0982C212CA4FE10C0B601CE
:1017D00080E390E00E94430CA2FE17C0A1FC03C06E
:1017E00088E790E002C088E590E0B6010CC08A2D41
:1017F000867859F0A1FE02C08BE201C080E2A7FC0E
:101800008DE2B60190E00E94430C891438F4B601D1
:1018100080E390E00E94430C9A94F7CF8A94F301FE
:10182000E80DF11D8081B60190E00E94430C81100B
:10183000F5CF222009F442CEB60180E290E00E946A
:10184000430C2A94F6CFF6018681978102C08FEF70
:101850009FEF2B96E2E10C94F90CFC01059061508E
:1018600070400110D8F7809590958E0F9F1F0895B6
:10187000FC016150704001900110D8F7809590955F
:101880008E0F9F1F08950F931F93CF93DF93FB013C
:10189000238121FD03C08FEF9FEF2CC022FF16C0D4
:1018A00046815781248135814217530744F4A08132
:1018B000B1819D012F5F3F4F318320838C9326811F
:1018C00037812F5F3F4F3783268314C08B01EC0194
:1018D000FB010084F185E02D0995892BE1F6D80103
:1018E00016968D919C911797019617969C938E93BF
:1018F0001697CE01DF91CF911F910F910895FA01B4
:10190000AA27283051F1203181F1E8946F936E7F3E
:101910006E5F7F4F8F4F9F4FAF4FB1E03ED0B4E02F
:101920003CD0670F781F891F9A1FA11D680F791F70
:101930008A1F911DA11D6A0F711D811D911DA11D81
:1019400020D009F468943F912AE0269F1124301991
:10195000305D3193DEF6CF010895462F4770405D2C
:101960004193B3E00FD0C9F7F6CF462F4F70405DDB
:101970004A3318F0495D31FD4052419302D0A9F736
:10198000EACFB4E0A6959795879577956795BA9530
:10199000C9F700976105710508959B01AC010A2EF6
:1019A00006945795479537952795BA95C9F7620FCD
:1019B000731F841F951FA01D08952F923F924F9271
:1019C0005F926F927F928F929F92AF92BF92CF92CF
:1019D000DF92EF92FF920F931F93CF93DF93CDB7D8
:1019E000DEB7CA1BDB0B0FB6F894DEBF0FBECDBF50
:1019F00009942A88398848885F846E847D848C8421
:101A00009B84AA84B984C884DF80EE80FD800C8129
:101A10001B81AA81B981CE0FD11D0FB6F894DEBF0C
:0C1A20000FBECDBFED010895F894FFCF7C
:101A2C004E4F5F4B455900410034003500360042A3
:101A3C0000370038003900430030002300440047D1
:101A4C003A00423A005075742074686520436F6CFC
:101A5C006F722E2E2E0053656E73696E672E2E2EAE
:101A6C0000446F6E6500507574205768697465008A
:101A7C0043616C6962726174696E672E2E2E005020
:101A8C00757420436F6C6F72310050757420436F06
:101A9C006C6F72320050757420436F6C6F72330030
:101AAC0043616C6962726174696F6E20646F6E65FC
:101ABC0000523A002564002A2A2A2A57454C434FE3
:101ACC004D452A2A2A2A2A0043616C696272617484
:101ADC00696E67004D6F64652E2E2E0053656E7314
:101AEC00696E6700496E7075740056616C7565207F
:061AFC004572726F7200DA
:00000001FF
