:100000000C945D000C9485000C9485000C94850084
:100010000C9485000C9485000C9485000C9485004C
:100020000C9485000C9485000C9485000C9485003C
:100030000C9485000C9485000C9485000C9485002C
:100040000C94DF050C9485000C94AD050C94870589
:100050000C9485000C9485000C9485000C9485000C
:100060000C9429060C948500000000002400270051
:100070002A0000000000250028002B0004040404CE
:100080000404040402020202020203030303030342
:10009000010204081020408001020408102001021F
:1000A00004081020000000080002010000030407FB
:1000B0000000000000000000480711241FBECFEF21
:1000C000D8E0DEBFCDBF11E0A0E0B1E0EEE2F4E1A8
:1000D00002C005900D92AE3BB107D9F723E0AEEB1D
:1000E000B1E001C01D92A234B207E1F710E0CDE506
:1000F000D0E004C02197FE010E940F0ACC35D10741
:10010000C9F70E9490070C94150A0C9400000895FA
:100110000895AF92BF92CF92DF92EF92FF920F932A
:100120001F93CF93DF936C017B018B01040F151F8D
:10013000EB015E01AE18BF08C017D10759F06991F5
:10014000D601ED91FC910190F081E02DC601099559
:10015000892B79F7C501DF91CF911F910F91FF9006
:10016000EF90DF90CF90BF90AF900895FC01538D3A
:10017000448D252F30E0842F90E0821B930B541781
:1001800010F0CF96089501970895FC01918D828D0E
:10019000981761F0A28DAE0FBF2FB11D5D968C91A7
:1001A000928D9F5F9F73928F90E008958FEF9FEFE6
:1001B0000895FC01918D828D981731F0828DE80FA2
:1001C000F11D858D90E008958FEF9FEF0895FC015C
:1001D000918D228D892F90E0805C9F4F821B910929
:1001E0008F73992708958DE892E00E94E70021E03F
:1001F000892B09F420E0822F089580E090E0892B7C
:1002000029F00E94F30081110C9400000895FC0174
:10021000A48DA80FB92FB11DA35ABF4F2C91848D67
:1002200090E001968F739927848FA689B7892C93C4
:10023000A089B1898C91837080648C93938D848D17
:10024000981306C00288F389E02D80818F7D80831A
:100250000895EF92FF920F931F93CF93DF93EC01DA
:1002600081E0888F9B8D8C8D98131AC0E889F9895D
:10027000808185FF15C09FB7F894EE89FF89608360
:10028000E889F98980818370806480839FBF81E0E1
:1002900090E0DF91CF911F910F91FF90EF90089523
:1002A000F62E0B8D10E00F5F1F4F0F731127E02EFE
:1002B0008C8D8E110CC00FB607FCFACFE889F98936
:1002C000808185FFF5CFCE010E940701F1CFEB8D34
:1002D000EC0FFD2FF11DE35AFF4FF0829FB7F8940A
:1002E0000B8FEA89FB8980818062CFCFCF93DF9328
:1002F000EC01888D8823B9F0AA89BB89E889F9893E
:100300008C9185FD03C0808186FD0DC00FB607FC72
:10031000F7CF8C9185FFF2CF808185FFEDCFCE01A5
:100320000E940701E9CFDF91CF91089590E0FC0191
:10033000EC55FF4F2491FC01E057FF4F3491FC0135
:10034000E458FF4FE491EE23C9F0222339F0233023
:1003500001F1A8F4213019F1223029F1F0E0EE0F7B
:10036000FF1FEE58FF4FA591B4918FB7F894EC9111
:10037000611126C030953E233C938FBF08952730EE
:10038000A9F02830C9F0243049F7809180008F7D92
:1003900003C0809180008F7780938000DFCF84B589
:1003A0008F7784BDDBCF84B58F7DFBCF8091B0008C
:1003B0008F778093B000D2CF8091B0008F7DF9CF3E
:1003C0003E2BDACFCF93DF9390E0FC01E057FF4F55
:1003D000249184589F4FFC0184918823D1F090E0B0
:1003E000880F991FFC01E859FF4FA591B491FC01BA
:1003F000EE58FF4FC591D49161110EC09FB7F8948C
:100400008C91E22FE0958E238C932881E223E88360
:100410009FBFDF91CF9108958FB7F894EC91E22BB5
:10042000EC938FBFF6CF8E3008F08E5087708064CB
:1004300080937C0080917A00806480937A00809120
:100440007A0086FDFCCF8091780090917900089524
:100450003FB7F8948091750290917602A09177024F
:10046000B091780226B5A89B05C02F3F19F00196E0
:10047000A11DB11D3FBFBA2FA92F982F8827BC01FE
:10048000CD01620F711D811D911D42E0660F771F26
:10049000881F991F4A95D1F708958F929F92AF9226
:1004A000BF92CF92DF92EF92FF924B015C010E94CC
:1004B00028026B017C010E9428026C197D098E09BB
:1004C0009F09683E734081059105A8F321E0821AD7
:1004D0009108A108B10888EEC80E83E0D81EE11C7F
:1004E000F11C81149104A104B10429F7FF90EF904D
:1004F000DF90CF90BF90AF909F908F900895089518
:100500002091FF01260F3327331F21323105ECF4F0
:1005100020914802FC0190E080E0243069F082E004
:100520000895A091FF012191AC0141525E4FA40FAB
:10053000B52FB11D2C930196861798F38091FF017A
:10054000680F6093FF0180E0089581E008951092A4
:10055000480281E0809347021092220261E082E12A
:100560000E94960161E083E10E949601E9EBF0E0D0
:1005700080818E7F808380818D7F808388E48093DB
:10058000B80085E48093BC000895CF93DF9391E099
:100590009093DE018823B9F0C091B800D091BA00E1
:1005A0008091BC008A7B8093BC0060E082E10E9465
:1005B000960160E083E10E9496010E94A702D09319
:1005C000BA00C093B800DF91CF9108950895E091EB
:1005D000800280917F02E81730F4F0E0E254FE4F91
:1005E000808190E008958FEF9FEF089590918002B1
:1005F00080917F022FEF3FEF981748F4E92FF0E04A
:10060000E254FE4F208130E09F5F90938002C90149
:10061000089580917F0290918002891B990B089523
:10062000CF92DF92EF92FF920F931F93CF93DF93BE
:100630007C01CB018A0120914E02222389F0EB013B
:100640006B01C40ED51ECC15DD0569F06991D7018B
:10065000ED91FC910190F081E02DC7010995F3CF58
:10066000642F0E948002C801DF91CF911F910F91EA
:10067000FF90EF90DF90CF900895CF93DF931F927C
:10068000CDB7DEB7698320914E022223F9F0209185
:100690007D02203258F021E030E0FC0133832283D8
:1006A00090E080E00F90DF91CF91089580917E02DD
:1006B000E82FF0E0E15BFD4F998190838F5F80939D
:1006C0007E0280937D0281E090E0ECCF61E0CE017C
:1006D00001960E948002F7CFCF92DF92EF92FF92B5
:1006E0000F931F93CF93DF93FC01C48121E02093EC
:1006F0004E02C0936F0210927E0210927D0283859B
:10070000682B8AE293E00E943D03D0917D02D132B2
:1007100008F092C00E9428026B017C01809148027F
:10072000811165C082E08093480281E08093470296
:100730008FEF8093460210924502D0934402AFE4BB
:10074000B2E0E4E2F2E080E0D81385C01092230228
:1007500080912302CC0FC82BC093230280912202E8
:10076000813009F07CC0109222020E9428026B01A5
:100770007C01809123028093BB0080914A0290917A
:100780004B02A0914C02B0914D02892B8A2B8B2BEE
:1007900099F00E94280200914A0210914B02209188
:1007A0004C0230914D026C197D098E099F09061784
:1007B000170728073907E0F18091BC0083FDD9CFE6
:1007C00085EC8093BC000E9428026B017C01809123
:1007D0004802823009F445C0809146028F3F61F1A2
:1007E00080914602803241F18091460225C080917D
:1007F0004A0290914B02A0914C02B0914D02892B7C
:100800008A2B8B2B09F48ACF0E94280200914A027E
:1008100010914B0220914C0230914D026C197D09D0
:100820008E099F09061717072807390708F076CFA2
:10083000809149020E94C50210927E0210927D02B0
:1008400010924E02DF91CF911F910F91FF90EF9088
:10085000DF90CF9008959D9191938F5F75CF85EE36
:10086000B0CF80914A0290914B02A0914C02B0917E
:100870004D02892B8A2B8B2B09F4A9CF0E942802C9
:1008800000914A0210914B0220914C0230914D028E
:100890006C197D098E099F09061717072807390764
:1008A00008F095CFC5CF90E080E008950F931F9397
:1008B000CF938C01C62F0E946C036C2F6460C8011B
:1008C0000E946C036C2F6B7FC8010E946C0383EC49
:1008D00090E00197F1F7CF911F910F9108950F9339
:1008E0001F93CF93DF938C01D62FC42F607F642B8F
:1008F0000E94560480E1D89FB00111246C2BC801DE
:10090000DF91CF911F910F910C945604CF93DF93F9
:10091000CDB7DEB728970FB6F894DEBF0FBECDBFB8
:1009200098E0E0E0F1E0DE01119601900D929A95D9
:10093000E1F790913E03981708F48FEF90E0880F4D
:10094000991F21E030E02C0F3D1F820F931FFC0107
:100950006081606840E086E393E028960FB6F894E3
:10096000DEBF0FBECDBFDF91CF910C946F0441E08D
:100970000E946F0481E090E00895FB010190002047
:10098000E9F73197AF01461B570BDC01ED91FC9164
:100990000280F381E02D09948F929F92AF92BF92D3
:1009A000CF92DF92EF92FF920F931F93CF93DF933B
:1009B000CDB7DEB7A1970FB6F894DEBF0FBECDBF9F
:1009C0006C01990FEE08FF08F7FE43C06DE28DE859
:1009D00092E00E9429018C0122273327A9012C19BA
:1009E0003D094E095F0919A2CE0181967C019AE06A
:1009F000892E912CA12CB12CCA01B901A501940119
:100A00000E94ED09605DF70162937F0121153105B8
:100A10004105510589F790E080E0309729F0BF014A
:100A20008DE892E00E94BD04800F911FA1960FB641
:100A3000F894DEBF0FBECDBFDF91CF911F910F9114
:100A4000FF90EF90DF90CF90BF90AF909F908F90EE
:100A50000895A701960119A28E010F5D1F4F8AE02C
:100A6000C82ED12CE12CF12CCA01B901A7019601A5
:100A70000E94ED09605DF80162938F012115310537
:100A80004105510589F790E080E0309779F2BF0188
:100A90008DE892E00E94BD04C9CF0C94BD0485EDA1
:100AA0008093BC0080914A0290914B02A0914C022D
:100AB000B0914D020796A11DB11D23E0B695A795F3
:100AC000979587952A95D1F72091BC0024FD03C006
:100AD00010924802089540914A0250914B02609151
:100AE0004C0270914D02452B462B472B69F3009722
:100AF000A105B10541F025E32A95F1F70000019722
:100B0000A109B109E1CF809149020C94C5021F925D
:100B10000F920FB60F9211242F933F934F935F9331
:100B20006F937F938F939F93AF93BF93EF93FF93B5
:100B30008DE892E00E940701FF91EF91BF91AF9184
:100B40009F918F917F916F915F914F913F912F91E5
:100B50000F900FBE0F901F9018951F920F920FB617
:100B60000F9211242F938F939F93EF93FF93E09114
:100B70009D02F0919E028081E091A302F091A40277
:100B800082FD1BC090818091A6028F5F8F732091A0
:100B9000A702821741F0E091A602F0E0E357FD4F73
:100BA000958F8093A602FF91EF919F918F912F9146
:100BB0000F900FBE0F901F9018958081F4CF1F9259
:100BC0000F920FB60F9211242F933F938F939F9301
:100BD000AF93BF938091710290917202A0917302C2
:100BE000B09174023091700223E0230F2D3758F535
:100BF0000196A11DB11D2093700280937102909304
:100C00007202A0937302B093740280917502909166
:100C10007602A0917702B09178020196A11DB11DD4
:100C20008093750290937602A0937702B093780236
:100C3000BF91AF919F918F913F912F910F900FBED8
:100C40000F901F90189526E8230F0296A11DB11D45
:100C5000D2CF1F920F920FB60F9211242F933F9372
:100C60004F935F936F937F938F939F93AF93BF93B4
:100C7000EF93FF938091B900887F803609F44AC0D2
:100C8000F0F5883209F4A7C018F5803109F49BC04B
:100C9000B8F4882309F4F9C0883009F494C0FF91AE
:100CA000EF91BF91AF919F918F917F916F915F91E4
:100CB0004F913F912F910F900FBE0F901F9018955D
:100CC000883109F488C0803251F78093460214C0FD
:100CD000803409F49DC040F48033B9F38833F9F6C9
:100CE0008093460285ECB0C0803509F485C0883514
:100CF00009F496C0883499F60E944F05D0CF883900
:100D000009F48CC038F5883729F050F4883611F092
:100D1000803729F683E0809348021092210257C061
:100D2000883809F47BC0803919F0803809F0B7CFD2
:100D300080912102803208F071C0E091210281E0AF
:100D40008E0F809321028091BB00F0E0EF5FFD4F9A
:100D500080833DC0803B39F0E0F4803A09F479C0EB
:100D6000883A09F09CCF84E08093480210920002F8
:100D70001092FF01E0917B02F0917C020995809135
:100D8000FF0181110FC081E08093FF011092DF010C
:100D900009C0803C09F4A6CF883C09F4A3CF883B66
:100DA00009F07DCFE091000281E08E0F8093000278
:100DB000F0E0E152FE4F80818093BB0090910002F1
:100DC0008091FF0129C0809123028093BB0085ECB4
:100DD0008093BC0064CF90914502809144029817A3
:100DE00058F5E091450281E08E0F80934502F0E0D6
:100DF000EC5DFD4F8081E9CFE091450281E08E0FEF
:100E0000809345028091BB00F0E0EC5DFD4F808354
:100E100090914502809144029817C8F285E8D8CF96
:100E2000E091450281E08E0F809345028091BB00E6
:100E3000F0E0EC5DFD4F80838091470281115CCF33
:100E400081E08093220284EA8093BC0010924802E1
:100E500026CF85EC8093BC0010924802809121023D
:100E6000803230F4E0912102F0E0EF5FFD4F10821C
:100E70006091210270E0E0917902F0917A0281E0C4
:100E800092E00995109221020ACF1092460234CFC7
:100E9000EDE8F2E01382128288EE93E0A0E0B0E089
:100EA00084839583A683B7832CE031E0318320834C
:100EB00025EC30E03587248724EC30E0378726871F
:100EC00020EC30E0318B208B21EC30E0338B228B17
:100ED00022EC30E0358B248B26EC30E0378B268BF0
:100EE000118E128E138E148EEAE2F3E013821282B8
:100EF00084839583A683B7838EE191E09183808379
:100F0000E6E3F3E01382128280E391E09183808331
:100F100087E2848380E1818782E082871386089557
:100F2000789484B5826084BD84B5816084BD85B5C4
:100F3000826085BD85B5816085BD80916E008160D0
:100F400080936E0010928100809181008260809376
:100F50008100809181008160809381008091800078
:100F60008160809380008091B10084608093B100A3
:100F70008091B00081608093B00080917A0084609D
:100F800080937A0080917A00826080937A008091C9
:100F90007A00816080937A0080917A0080688093E3
:100FA0007A001092C1001092800210927F0210927B
:100FB0007E0210927D020E94A70287E890E0909343
:100FC0007C0280937B0288E890E090937A02809381
:100FD000790210923B0380914003823018F098E030
:100FE00090933B0380933E0362E370E080E090E0E7
:100FF0000E944D026091410386E393E00E946C03DE
:1010000068EE73E080E090E00E944D0260E386E3CA
:1010100093E00E945604CBE4D6E4CE010197F1F7A9
:1010200060E386E393E00E9456042197F1F760E3C2
:1010300086E393E00E94560483E592E00197F1F77E
:1010400060E286E393E00E94560460913B03606295
:1010500040E086E393E00E946F0484E080933C03C9
:1010600040E06CE086E393E00E946F0440E061E0C2
:1010700086E393E00E946F04CBE3DFE1CE010197AA
:10108000F1F712E010933D0340E066E086E393E061
:101090000E946F0440E062E086E393E00E946F04E8
:1010A0002197F1F788E08093410360E086E393E0C5
:1010B0000E946C0361E08BE00E94E20161E08CE041
:1010C0000E94E20161E08DE00E94E20160E08EE0BA
:1010D0000E94E20161E08FE00E94E20161E081E1B3
:1010E0000E94E20161E080E10E94E201E0919D0244
:1010F000F0919E021083E0919902F0919A02108281
:10110000E0919B02F0919C028FEC80831092A502EB
:10111000E091A102F091A20286E08083E0919F021B
:10112000F091A002808180618083E0919F02F09124
:10113000A002808188608083E0919F02F091A002EC
:10114000808180688083E0919F02F091A00280817D
:101150008F7D80838BE3E82E8FE1F82E00E010E096
:10116000C1E0D0E080E00E94860468E371E086E39D
:1011700093E00E944D0561E08BE00E94960168E2D9
:1011800070E080E090E00E944D028EE00E94130229
:1011900090938C0280938B026AE070E080E090E094
:1011A0000E944D0269E471E08DE892E00E944D05D5
:1011B00080918B0290918C020E94CC046CE471E0CF
:1011C0008DE892E00E94BD0460E08BE00E949601F1
:1011D00061E08CE00E94960168E270E080E090E0BF
:1011E0000E944D028EE00E94130290938A02809327
:1011F00089026AE070E080E090E00E944D026FE4B6
:1012000071E08DE892E00E944D05809189029091F5
:101210008A020E94CC046CE471E08DE892E00E94A6
:10122000BD0460E08CE00E94960161E08DE00E94C8
:10123000960168E270E080E090E00E944D028EE04E
:101240000E94130290938802809387026AE070E004
:1012500080E090E00E944D0262E571E08DE892E04E
:101260000E944D0580918702909188020E94CC04D3
:101270006CE471E08DE892E00E94BD0460E08DE0D6
:101280000E94960140918B0250918C02209189021C
:1012900030918A02809187029091880245365105EB
:1012A000B4F1853691059CF12536310584F1D09352
:1012B0008602C0938502D0938402C0938302D093A8
:1012C0008202C093810281E00E94860465E571E09C
:1012D00086E393E00E944D05609185028FE00E94B5
:1012E00096016091830281E10E94960160918102E2
:1012F00080E10E9496010115110509F433CF0E9487
:10130000F300882309F42ECF0E9400002BCF24176E
:10131000350784F48417950704F543335105ECF041
:10132000D0938602C093850281E00E94860467E61E
:1013300071E0CECF4217530784F4821793076CF401
:101340002536310554F0D0938402C093830281E0A6
:101350000E94860468E771E0BBCF481759077CF408
:101360002817390764F4C39754F0D0938202C093CE
:10137000810281E00E9486046AE871E0A9CF1092A0
:1013800086021092850210928402109283021092BB
:1013900082021092810280E00E9486046BE971E073
:1013A00086E393E00E944D0581E00E9486046AEA8C
:1013B00071E086E393E00E944D0564EF71E080E008
:1013C00090E00E944D0240E061E086E393E00E94DD
:1013D0006F04C7010197F1F77FCFA1E21A2EAA1B74
:1013E000BB1BFD010DC0AA1FBB1FEE1FFF1FA217D5
:1013F000B307E407F50720F0A21BB30BE40BF50BD2
:10140000661F771F881F991F1A9469F7609570955A
:10141000809590959B01AC01BD01CF010895EE0F21
:0E142000FF1F0590F491E02D0994F894FFCF82
:10142E000000400014005400000000002901890053
:10143E00B6007601E700C500D900000000003D03AC
:10144E0010035304E6020903F602E702000000004F
:10145E00B704890053047F0220436F6C6F722044DF
:10146E00657465637465642000523D000D0A004783
:10147E003D00423D00202020576869746520436F6F
:10148E006C6F7220202000202020205245442043E3
:10149E006F6C6F7220202000202020477265656ED1
:1014AE0020436F6C6F7220202000202020426C752C
:1014BE006520436F6C6F722020200053656E736F32
:1014CE0072696E67204D6F646500202020496E732F
:0E14DE0065727420436F6C6F757220202000C1
:00000001FF
