:100000000C9434000C9451000C9451000C94510049
:100010000C9451000C9451000C9451000C9451001C
:100020000C9451000C9451000C9451000C9451000C
:100030000C9451000C9451000C9451000C945100FC
:100040000C9451000C9451000C9451000C945100EC
:100050000C9451000C9451000C9451000C945100DC
:100060000C9451000C94510011241FBECFEFD8E026
:10007000DEBFCDBF11E0A0E0B1E0ECE4FAE102C0E8
:1000800005900D92A83DB107D9F721E0A8EDB1E0A8
:1000900001C01D92AA3DB207E1F70E94FF050C9432
:1000A000240D0C94000081E085B983B1813119F0F1
:1000B00080E091E002C088E691E023B1213211F4A2
:1000C00083E791E023B1213021F44A9B02C08EE7FF
:1000D00091E023B1213021F44C9B02C087E091E0F4
:1000E0002FE738E341E0215030404040E1F700C0C5
:1000F000000022E025B923B1223111F489E091E01A
:1001000023B1223211F48BE091E023B1223021F4AB
:100110004A9B02C08DE091E023B1223021F44C9B38
:1001200002C08FE091E02FE738E341E021503040FA
:100130004040E1F700C0000024E025B923B124319C
:1001400011F481E191E023B1243211F483E191E0D3
:1001500023B1243021F44A9B02C085E191E023B110
:10016000243021F44C9B02C087E191E02FE738E373
:1001700041E0215030404040E1F700C0000028E05D
:1001800025B923B1283111F486EA91E023B1283250
:1001900011F489E191E023B1283021F44A9B02C097
:1001A0008BE191E023B1283021F44C9B02C08DE11A
:1001B00091E02FE738E341E0215030404040E1F743
:1001C00000C00000089582E68093B80084E0809328
:1001D000BC001092B900089584EA8093BC0080911D
:1001E000BC008823E4F708958093BB0084E88093E3
:1001F000BC008091BC008823E4F70895EBEBF0E0AD
:1002000080818260808384E88093BC008091BC0000
:100210008823E4F78FEC97E00197F1F700C0000026
:10022000EBEBF0E080818D7F808384E88093BC00DD
:100230008091BC008823E4F70895EBEBF0E0908117
:100240009E7F908394E89093BC009091BC0099238A
:10025000E4F7EBEBF0E090819F70908394E890934B
:10026000BC009091BC009923E4F7EBEBF0E09081A7
:10027000807F892B808384E88093BC008091BC00C0
:100280008823E4F70E94FE000895CF93C82FEBEB7C
:10029000F0E080818E7F808384E88093BC00809131
:1002A000BC008823E4F7EBEBF0E080818F70808363
:1002B00084E88093BC008091BC008823E4F7EBEBDA
:1002C000F0E080819C2F907F892B808384E880934D
:1002D000BC008091BC008823E4F70E94FE00EBEB99
:1002E000F0E080818F70808384E88093BC008091EF
:1002F000BC008823E4F7EBEBF0E0208130E1C39F02
:10030000C0011124822B808384E88093BC008091FB
:10031000BC008823E4F70E94FE00CF910895CF939C
:10032000C82FEBEBF0E080818160808384E88093CC
:10033000BC008091BC008823E4F7EBEBF0E0808107
:100340008F70808384E88093BC008091BC008823F8
:10035000E4F7EBEBF0E080819C2F907F892B80838A
:1003600084E88093BC008091BC008823E4F70E945D
:10037000FE00EBEBF0E080818F70808384E8809357
:10038000BC008091BC008823E4F7EBEBF0E0208117
:1003900030E1C39FC0011124822B808384E88093C5
:1003A000BC008091BC008823E4F70E94FE00CF913E
:1003B000089580E30E941D0180E30E941D0180E2F8
:1003C0000E941D0188E20E9445018CE00E944501C7
:1003D00081E00E94450186E00E94450180E80E947C
:1003E00045010895CF93DF93EC0103C021960E944D
:1003F0008F0188818111FACFDF91CF910895CF933A
:10040000DF93EA0181110BC0603148F4862F8F70B1
:1004100080680E944501CE010E94F2010CC081302B
:1004200051F4603140F4862F8F70806C0E9445013A
:10043000CE010E94F201DF91CF910895EF92FF92D9
:100440000F931F93CF93DF938C017B01EA01CB01C4
:100450000E94F2012FEF82E597E02150804090400A
:10046000E1F700C00000C801880F991FC80FD91F0D
:10047000C7010E940B0A998388830230110539F461
:100480004FE151E06AE080E00E94FF0109C00530C1
:10049000110531F442E251E060E081E00E94FF0189
:1004A000DF91CF911F910F91FF90EF9008958F9260
:1004B0009F92AF92BF92CF92DF92EF92FF92809184
:1004C0007800909179009C01220F331F220F331F77
:1004D000820F931F692F6695669570E080E090E02B
:1004E0000E949F086B017C0120E030E040E251E473
:1004F0000E9451094B015C01A701960160E070E088
:1005000080EA90E40E9485079B01AC01C501B4011B
:100510000E94F707FF90EF90DF90CF90BF90AF90D1
:100520009F908F900895CF93DF93EC0188B1826004
:1005300088B92FEF82E597E0215080409040E1F7A5
:1005400000C000000E945702688379838A839B83DE
:1005500088B18D7F88B988B1846088B92FEF82E532
:1005600097E0215080409040E1F700C000000E94D9
:1005700057026C837D838E839F8388B18B7F88B97C
:1005800088B1886088B92FEF82E597E021508040DC
:100590009040E1F700C000000E9457026887798709
:1005A0008A879B8788B1877F88B9DF91CF9108952B
:1005B000CF93DF93EC0181E00E94450185E291E059
:1005C0000E94F2012FEF83ED90E321508040904094
:1005D000E1F700C0000081E00E94450186E391E060
:1005E0000E94F201CE010E94930281E00E94450127
:1005F00081E491E00E94F201DF91CF9108958F9202
:100600009F92AF92BF92CF92DF92EF92FF920F93A1
:100610001F93CF93DF93CDB7DEB72C970FB6F89427
:10062000DEBF0FBECDBF69837A838B839C832D830E
:100630003E834F835887E986FA860B871C8700E044
:1006400010E0A12CB12C912C812C21C0F801EE0FCF
:10065000FF1FEE0FFF1F81E090E08C0F9D1FE80F42
:10066000F91FC080D180E280F3802C2D3D2D4E2DCE
:100670005F2D6A2D7B2D892D982D0E94F2078823EE
:1006800024F4AC2CBD2C9E2C8F2C0F5F1F4F0330FD
:100690001105E4F26A2D7B2D892D982D2C960FB62D
:1006A000F894DEBF0FBECDBFDF91CF911F910F91A8
:1006B000FF90EF90DF90CF90BF90AF909F908F9082
:1006C0000895CF92DF92EF92FF920F931F93CF93F3
:1006D000DF93CDB7DEB7A4970FB6F894DEBF0FBE99
:1006E000CDBF8C016B0119821A821B821C821D8274
:1006F0001E821F82188619861A861B861C861D86F6
:100700001E861F86188A198A1A8A1B8A1C8A1D8AC5
:100710001E8A1F8A188E198E1A8E1B8E1C8E1D8E95
:100720001E8E1F8E18A219A21AA21BA21CA281E063
:100730000E94450186E491E00E94F2012FEF83EDD3
:1007400090E3215080409040E1F700C0000081E03C
:100750000E94450180E591E00E94F201EFE1FEE494
:100760003197F1F700C00000C8010E94930281E0B8
:100770000E9445018FE591E00E94F201FFEF23ED19
:1007800080E3F15020408040E1F700C0000081E0AC
:100790000E94450180E591E00E94F201EFE1FEE454
:1007A0003197F1F700C00000CE0101960E9493023C
:1007B00081E00E9445018AE691E00E94F201FFEF8C
:1007C00023ED80E3F15020408040E1F700C00000BD
:1007D00081E00E94450180E591E00E94F201EFE195
:1007E000FEE43197F1F700C00000CE010D960E94A3
:1007F000930281E00E94450185E791E00E94F201A9
:10080000FFEF23ED80E3F15020408040E1F700C08E
:10081000000081E00E94450180E591E00E94F20124
:10082000EFE1FEE43197F1F700C00000CE014996F8
:100830000E94930281E00E94450180E891E00E94BD
:10084000F201E98CFA8C0B8D1C8D2D853E854F8530
:10085000588969817A818B819C810E94FF02F6010F
:100860006083718382839383ED8CFE8C0F8D18A13E
:1008700029893A894B895C896D817E818F81988530
:100880000E94FF02F6016483758386839783E9A043
:10089000FAA00BA11CA12D893E894F89588D69852D
:1008A0007A858B859C850E94FF02F601608771879F
:1008B00082879387A4960FB6F894DEBF0FBECDBF94
:1008C000DF91CF911F910F91FF90EF90DF90CF902C
:1008D0000895CF93DF93FC01DB018081918144E691
:1008E000489FB001499F700D112482819381EC01D2
:1008F000CC0FDD1F9C01220F331F220F331F220F4D
:10090000331FCE01820F931F860F971F24813581DD
:10091000820F931F11969C938E9386819781489F97
:10092000B001499F700D112480859185EC01CC0F99
:10093000DD1F9C01220F331F220F331F220F331F95
:10094000CE01820F931F860F971F22853385820F5A
:10095000931F13969C938E93129784859585489F39
:10096000B001499F700D112486859785AC01440F15
:10097000551F9C01220F331F220F331F220F331FDD
:10098000CA01820F931F860F971F20893189820F1A
:10099000931F15969C938E931497DF91CF91089592
:1009A0004F925F926F927F928F929F92AF92BF927F
:1009B000CF92DF92EF92FF920F931F9349015A015A
:1009C000270138019B01AC01C501B4010E948507D4
:1009D0006B017C01A3019201C501B4010E9485074E
:1009E0009B01AC01C701B6010E94F70720E030E08F
:1009F0004FE753E40E9451090E94BE090E94690812
:100A0000CB011F910F91FF90EF90DF90CF90BF909F
:100A1000AF909F908F907F906F905F904F900895D0
:100A200093E095BD9093B100823731F483E28093D7
:100A3000B0006093B4000895873629F484B58362CA
:100A400084BD68BD0895823621F484B5836884BD71
:100A500067BD089520E030E00DC0F901EE0FFF1FE3
:100A6000E80FF91F408151814F3F510509F044F4CF
:100A70002F5F3F4F2330310584F380E090E00895ED
:100A800081E090E008954F925F926F927F928F92F3
:100A90009F92AF92BF92CF92DF92EF92FF920F930D
:100AA0001F93CF93DF93CDB7DEB764970FB6F8945B
:100AB000DEBF0FBECDBF3C014B012A0181E00E9489
:100AC0004501F301E080F18002811381F40120816E
:100AD000318142815381F2016081718182819381F0
:100AE0000E94D004082F192F81E991E00E94F201A1
:100AF0001F930F930F2EF4E9AF2EF1E0BF2EF02DD0
:100B0000BF92AF92CE0101966C019F938F930E948A
:100B10003A0AC6010E94F201602F712F82E70E94FB
:100B20001005F301E480F58006811781F40124812A
:100B3000358146815781F201648175818681978173
:100B40000E94D004082F192F4FE151E06AE080E0A5
:100B50000E94FF011F930F93BF92AF92DF92CF923B
:100B60000E943A0AC6010E94F201602F712F87E6A7
:100B70000E941005F301E084F18402851385F401DD
:100B80002085318542855385F20160857185828596
:100B900093850E94D004882E992E42E251E060E0B5
:100BA00081E00E94FF019F928F92BF92AF92DF92ED
:100BB000CF920E943A0AC6010E94F201682D792D57
:100BC00082E60E9410050FB6F894DEBF0FBECDBFBF
:100BD00064960FB6F894DEBF0FBECDBFDF91CF9104
:100BE0001F910F91FF90EF90DF90CF90BF90AF904B
:100BF0009F908F907F906F905F904F900895CF93CC
:100C0000DF93CDB7DEB7EC970FB6F894DEBF0FBE1B
:100C1000CDBF8FEC84B988EE8AB98EEF87B980E4B6
:100C200080937C00EAE7F0E08FE8808310927E00FA
:100C3000808180648083FE01319682E1DF011D9214
:100C40008A95E9F71B8A1C8A1D8A1E8A1F8A188EBC
:100C5000198E1A8E1B8E1C8E1D8E1E8E1F8E18A234
:100C600019A21AA21BA21CA21DA21EA21FA218A694
:100C700019A61AA61BA61CA61DA61EA61FA618AA64
:100C800019AA1AAA1BAA1CAA1DAA1EAA18AE1FAA34
:100C90001AAE19AE1CAE1BAE0E94E3000E94EC001F
:100CA00080E70E94F4000E94D90187E991E00E9448
:100CB000F201C12CD12CE12CF12C0E9453008C01AB
:100CC00060E071E00E94290A892BB9F367E071E0C6
:100CD000C8010E94290A892B19F581E00E9445016B
:100CE0008CE00E94450148EA51E063E080E00E9408
:100CF000FF0144EB51E065E081E00E94FF01BFEF9E
:100D000029E688E1B15020408040E1F700C00000B2
:100D1000BE01615E7F4FCE0143960E946103CDCF3D
:100D20006FE071E0C8010E94290A892B79F581E002
:100D30000E9445018CE00E9445014CEB51E065E0CA
:100D400080E00E94FF0144EB51E065E081E00E94F9
:100D5000FF019FEFA9E6B8E19150A040B040E1F754
:100D600000C00000CE018B960E94D802AE01455D06
:100D70005F4FBE01615E7F4FCE0143960E944305E7
:100D8000CC24C394D12CE12CF12C97CF67E171E0F6
:100D9000C8010E94290A892B79F51092D901109275
:100DA000D80181E00E9445018CE00E94450144EC9D
:100DB00051E066E080E00E94FF0144EB51E065E015
:100DC00081E00E94FF012FEF89E698E121508040E9
:100DD0009040E1F700C0000081E00E94450181E9F8
:100DE00091E00E94F2018EE00E944501C12CD12CBD
:100DF000EE24E394F12C61CF6DE171E0C8010E9413
:100E0000290A892B59F51092B40018BC17BCA1E02F
:100E1000CA16D10479F4CE018B960E94D802AE0195
:100E2000455D5F4FBE01615E7F4FCE0143960E94DC
:100E3000430543CFB1E0EB16F10409F03ECF109229
:100E4000D9011092D80181E00E94450181E991E029
:100E50000E94F2018EE00E9445012FCF6BE171E00C
:100E6000C8010E94290A892B09F427CF66EA71E09C
:100E7000C8010E94290A892B09F41FCF21E0E2163C
:100E8000F10409F01ACFAE014F5F5F4FB8018091B6
:100E9000D8019091D9010E941E028091D8019091B1
:100EA000D90101969093D9018093D801099709F04F
:100EB00004CF1092D9011092D8018CE00E94450114
:100EC000BE01695C7F4FCE0101960E946904CE018C
:100ED000C7960E942A05892B81F46FA978AD82E715
:100EE0000E94100569AD7AAD87E60E9410056BADD2
:100EF0007CAD82E60E941005E0CE81E00E944501B3
:100F00008AEC91E00E94F201D8CE5058BB27AA2764
:100F10000E949D070C9417090E94090938F00E944D
:100F2000100920F039F49F3F19F426F40C940609B7
:100F30000EF4E095E7FB0C940009E92F0E942809C4
:100F400058F3BA17620773078407950720F079F4FE
:100F5000A6F50C944A090EF4E0950B2EBA2FA02D9D
:100F60000B01B90190010C01CA01A0011124FF2756
:100F7000591B99F0593F50F4503E68F11A16F04051
:100F8000A22F232F342F4427585FF3CF4695379550
:100F90002795A795F0405395C9F77EF41F16BA0B15
:100FA000620B730B840BBAF09150A1F0FF0FBB1FC3
:100FB000661F771F881FC2F70EC0BA0F621F731F0C
:100FC000841F48F4879577956795B795F7959E3F69
:100FD00008F0B0CF9395880F08F09927EE0F9795FA
:100FE000879508950E94DC0808F481E008950E9426
:100FF0000B080C9417090E94100958F00E94090967
:1010000040F029F45F3F29F00C94000951110C9431
:101010004B090C9406090E94280968F39923B1F33F
:10102000552391F3951B550BBB27AA27621773070E
:10103000840738F09F5F5F4F220F331F441FAA1FA2
:10104000A9F335D00E2E3AF0E0E832D0915050405E
:10105000E695001CCAF72BD0FE2F29D0660F771F0C
:10106000881FBB1F261737074807AB07B0E809F0F2
:10107000BB0B802DBF01FF2793585F4F3AF09E3F77
:10108000510578F00C9400090C944B095F3FE4F390
:10109000983ED4F3869577956795B795F7959F5FBA
:1010A000C9F7880F911D9695879597F90895E1E006
:1010B000660F771F881FBB1F621773078407BA0765
:1010C00020F0621B730B840BBA0BEE1F88F7E095C0
:1010D00008950E9470086894B1110C944B0908950A
:1010E0000E94300988F09F5798F0B92F9927B7517F
:1010F000B0F0E1F0660F771F881F991F1AF0BA95BC
:10110000C9F714C0B13091F00E944A09B1E00895C6
:101110000C944A09672F782F8827B85F39F0B93FB8
:10112000CCF3869577956795B395D9F73EF490956E
:101130008095709561957F4F8F4F9F4F0895E894EC
:1011400009C097FB3EF490958095709561957F4F0F
:101150008F4F9F4F9923A9F0F92F96E9BB279395BD
:10116000F695879577956795B795F111F8CFFAF4CD
:10117000BB0F11F460FF1BC06F5F7F4F8F4F9F4FFE
:1011800016C0882311F096E911C0772321F09EE85C
:10119000872F762F05C0662371F096E8862F70E0C2
:1011A00060E02AF09A95660F771F881FDAF7880F9C
:1011B0009695879597F90895990F0008550FAA0BF2
:1011C000E0E8FEEF16161706E807F907C0F012165A
:1011D0001306E407F50798F0621B730B840B950B5D
:1011E00039F40A2661F0232B242B252B21F40895B2
:1011F0000A2609F4A140A6958FEF811D811D08954F
:1012000097F99F6780E870E060E008959FEF80ECB9
:10121000089500240A94161617061806090608955C
:1012200000240A9412161306140605060895092EC2
:101230000394000C11F4882352F0BB0F40F4BF2B31
:1012400011F460FF04C06F5F7F4F8F4F9F4F089571
:1012500057FD9058440F551F59F05F3F71F0479567
:10126000880F97FB991F61F09F3F79F0879508954C
:10127000121613061406551FF2CF4695F1DF08C06B
:10128000161617061806991FF1CF86957105610588
:1012900008940895E894BB2766277727CB0197F930
:1012A00008950E9464090C9417090E94090938F0F6
:1012B0000E94100920F0952311F00C9400090C9461
:1012C000060911240C944B090E94280970F3959F7C
:1012D000C1F3950F50E0551F629FF001729FBB272D
:1012E000F00DB11D639FAA27F00DB11DAA1F649FC9
:1012F0006627B00DA11D661F829F2227B00DA11D7C
:10130000621F739FB00DA11D621F839FA00D611D01
:10131000221F749F3327A00D611D231F849F600D22
:10132000211D822F762F6A2F11249F5750409AF04B
:10133000F1F088234AF0EE0FFF1FBB1F661F771FD7
:10134000881F91505040A9F79E3F510580F00C94A2
:1013500000090C944B095F3FE4F3983ED4F3869563
:1013600077956795B795F795E7959F5FC1F7FE2B42
:10137000880F911D9695879597F908950E943009D9
:10138000E8F09E37E8F09639B8F49E3848F4672FB5
:10139000782F8827985FF9CF8695779567959395ED
:1013A0009539D0F3B62FB1706B0F711D811D20F4EC
:1013B00087957795679593950C94E2090C94FD09B0
:1013C0000C944B09882371F4772321F09850872BD4
:1013D000762F07C0662311F499270DC09051862BF4
:1013E00070E060E02AF09A95660F771F881FDAF7A1
:1013F000880F9695879597F908959F3F31F0915002
:1014000020F4879577956795B795880F911D9695E8
:10141000879597F90895FC0188279927E8942191E9
:101420002032E9F3293010F02E30C8F32B3241F08E
:101430002D3239F4689404C00E94320A820F911D43
:10144000219120532A30C0F31EF4909581959F4F2F
:101450000895FB01DC018D91019080190110D9F3F1
:10146000990B08957AE0979F902D879F802D910D7D
:1014700011240895AEE0B0E0E0E4FAE00C94FB0C37
:101480000D891E8986E08C831A8309838FEF9FE77D
:101490009E838D83AE01475E5F4F6F89788DCE014D
:1014A00001960E945C0AEF81F885E00FF11F10821F
:1014B0002E96E4E00C94170DABE0B0E0E2E6FAE023
:1014C0000C94ED0C6C017B018A01FC0117821682E1
:1014D000838181FFCCC1CE0101963C01F60193814D
:1014E000F70193FD859193FF81917F01882309F492
:1014F000BAC1853239F493FD859193FF81917F01C3
:10150000853229F4B60190E00E94530CE7CF912C6C
:10151000212C312CFFE1F315D8F08B3279F038F41F
:10152000803279F08332A1F4232D20611DC08D32E9
:1015300061F0803369F4232D216016C0832D826011
:10154000382EE32DE4603E2E2AC0F32DF8601DC036
:1015500037FC2DC020ED280F2A3040F08E32B9F430
:1015600036FC81C1232D2064322E19C036FE06C000
:101570008AE0989E200D1124922E11C0EAE02E9E42
:10158000200D1124222EF32DF0623F2E08C08C3640
:1015900021F4832D8068382E02C0883641F4F7018B
:1015A00093FD859193FF81917F018111B3CF982F96
:1015B0009F7D9554933028F40C5F1F4F9FE39983D0
:1015C0000DC0833631F0833771F0833509F059C08F
:1015D00021C0F801808189830E5F1F4F8824839486
:1015E000912C530113C02801F2E04F0E511CF80159
:1015F000A080B18036FE03C0692D70E002C06FEF9D
:101600007FEFC5010E94480C4C018201F32DFF774A
:101610003F2E16C0280122E0420E511CF801A08086
:10162000B18036FE03C0692D70E002C06FEF7FEF1E
:10163000C5010E943D0C4C01F32DF0683F2E820144
:1016400033FC1BC0822D90E088169906B0F4B601D9
:1016500080E290E00E94530C2A94F4CFF50137FC0D
:10166000859137FE81915F01B60190E00E94530C95
:1016700021102A9421E0821A91088114910471F7B3
:10168000E8C0843611F0893641F5F80137FE07C00D
:1016900060817181828193810C5F1F4F08C06081DE
:1016A0007181072E000C880B990B0E5F1F4FF32DD5
:1016B000FF763F2E97FF09C09095809570956195B4
:1016C0007F4F8F4F9F4FF0683F2E2AE030E0A301FD
:1016D0000E948F0C882E861845C0853731F4232D43
:1016E0002F7EB22E2AE030E025C0932D997FB92EAF
:1016F0008F36C1F018F4883579F0B5C0803719F00D
:10170000883721F0B0C0E92FE061BE2EB4FE0DC0D5
:10171000FB2DF460BF2E09C034FE0AC0292F2660BD
:10172000B22E06C028E030E005C020E130E002C063
:1017300020E132E0F801B7FE07C06081718182814B
:1017400093810C5F1F4F06C06081718180E090E043
:101750000E5F1F4FA3010E948F0C882E8618FB2D51
:10176000FF773F2E36FE0DC0232D2E7FA22E89142B
:1017700058F434FE0BC032FC09C0832D8E7EA82E97
:1017800005C0B82CA32C03C0B82C01C0B92CA4FEF2
:101790000FC0FE01E80DF11D8081803321F49A2DE8
:1017A000997EA92E09C0A2FE06C0B394B39404C0CA
:1017B0008A2D867809F0B394A3FC11C0A0FE06C060
:1017C000B21488F4280C922C9B180EC0B21460F44A
:1017D000B60180E290E00E94530CB394F7CFB214AC
:1017E00018F42B1802C0982C212CA4FE10C0B601AE
:1017F00080E390E00E94530CA2FE17C0A1FC03C03E
:1018000088E790E002C088E590E0B6010CC08A2D20
:10181000867859F0A1FE02C08BE201C080E2A7FCED
:101820008DE2B60190E00E94530C891438F4B601A1
:1018300080E390E00E94530C9A94F7CF8A94F301CE
:10184000E80DF11D8081B60190E00E94530C8110DB
:10185000F5CF222009F442CEB60180E290E00E944A
:10186000530C2A94F6CFF6018681978102C08FEF40
:101870009FEF2B96E2E10C94090DFC01059061505D
:1018800070400110D8F7809590958E0F9F1F089596
:10189000FC016150704001900110D8F7809590953F
:1018A0008E0F9F1F08950F931F93CF93DF93FB011C
:1018B000238121FD03C08FEF9FEF2CC022FF16C0B4
:1018C00046815781248135814217530744F4A08112
:1018D000B1819D012F5F3F4F318320838C932681FF
:1018E00037812F5F3F4F3783268314C08B01EC0174
:1018F000FB010084F185E02D0995892BE1F6D801E3
:1019000016968D919C911797019617969C938E939E
:101910001697CE01DF91CF911F910F910895FA0193
:10192000AA27283051F1203181F1E8946F936E7F1E
:101930006E5F7F4F8F4F9F4FAF4FB1E03ED0B4E00F
:101940003CD0670F781F891F9A1FA11D680F791F50
:101950008A1F911DA11D6A0F711D811D911DA11D61
:1019600020D009F468943F912AE0269F1124301971
:10197000305D3193DEF6CF010895462F4770405D0C
:101980004193B3E00FD0C9F7F6CF462F4F70405DBB
:101990004A3318F0495D31FD4052419302D0A9F716
:1019A000EACFB4E0A6959795879577956795BA9510
:1019B000C9F700976105710508959B01AC010A2ED6
:1019C00006945795479537952795BA95C9F7620FAD
:1019D000731F841F951FA01D08952F923F924F9251
:1019E0005F926F927F928F929F92AF92BF92CF92AF
:1019F000DF92EF92FF920F931F93CF93DF93CDB7B8
:101A0000DEB7CA1BDB0B0FB6F894DEBF0FBECDBF2F
:101A100009942A88398848885F846E847D848C8400
:101A20009B84AA84B984C884DF80EE80FD800C8109
:101A30001B81AA81B981CE0FD11D0FB6F894DEBFEC
:0C1A40000FBECDBFED010895F894FFCF5C
:101A4C004E4F5F4B45590041003400350036004283
:101A5C0000370038003900430030002300440047B1
:101A6C003A00423A005075742074686520436F6CDC
:101A7C006F722E2E2E0053656E73696E672E2E2E8E
:101A8C0000446F6E6500507574205768697465006A
:101A9C0043616C6962726174696E672E2E2E005000
:101AAC00757420436F6C6F72310050757420436FE6
:101ABC006C6F72320050757420436F6C6F72330010
:101ACC0043616C6962726174696F6E20646F6E65DC
:101ADC0000523A002564002A2A2A2A57454C434FC3
:101AEC004D452A2A2A2A2A0043616C696272617464
:101AFC00696E67004D6F64652E2E2E0053656E73F4
:101B0C00696E6700496E7075740056616C7565205E
:081B1C004572726F7221000096
:00000001FF
